:100000000C949F030C94C7030C94C7030C94C70370
:100010000C94C7030C94C7030C94C7030C94C70338
:100020000C94C7030C94C7030C94C7030C942614B8
:100030000C94C7030C94C7030C94C7030C94C70318
:100040000C9497130C94C7030C94C7030C94C70328
:100050000C94C7030C94C7030C94C7030C94C703F8
:100060000C94C7030C94C703C306C606C906CC0686
:10007000CF06D206D506D806DB060101FF03010133
:10008000F7037E007A0005008930080238024978BB
:10009000681400000500380168010000175344008F
:1000A00016137800161314001510200015201000E8
:1000B000540A03E181867F3E186D830F0F0E018382
:1000C000866033186DC3198F1803C38E6033186DA3
:1000D000E330CF1803C39E603630CDE360CF3006E7
:1000E000C79E7E3E30CDB360CF300CC6F660333055
:1000F000D9B660CF33CFCCF66061B0DB1E60CF30B5
:10010000D86CE6C061B0DB1E618F19986CC6C06305
:10011000B19B0E330F0FB078C6FF7E1F1B061E0F5C
:100120000048300000000000000000000000000057
:100130000000003FC0000000000000003FC00000C1
:100140000000000000020000009200040000000017
:100150000001310006000000000001FF000F000058
:10016000080000017D001680000C0000007C007F6C
:10017000E00016000000CE003E40002D000100828D
:10018000005FE0005F80FF008200E7B0000C00FF2E
:100190000082007E60000C00200082009FF0001EA4
:1001A0000000000001EEC800000000000000FFF0A9
:1001B00000000000000000FFF0000000000000034D
:1001C0006F3C00000000010000060000000000037A
:1001D000FE0006000000000003FE000F000000000B
:1001E00000000C00000000000000000C00000000F7
:1001F00000000000000000000000000000000000FF
:1002000000000000000000000000000400000000EA
:1002100000000000040000000000000000060000D4
:10022000C18C006000000D001CC18C006000180D26
:100230000032C00C000000183FC030D38F36E3E717
:10024000181F801CE18DB6636D982F4006F18DB6A6
:10025000636D9874E026D18DB6636D803FC01CDF5E
:10026000EF3FFB67184F2000000000000000F6F091
:10027000000000000000007FE0000000000000011E
:10028000B6D80000000000000000000000000000E0
:10029000000000000000000000000000000000005E
:1002A000000000000000000000000000000000004E
:1002B000000000000000000000000000000000003E
:1002C000000000000000000000000000000000002E
:1002D000000000080A0818FFBDBD66442412090882
:1002E0000A1018FFBDBD24A5428100080A4A99FFE3
:1002F000BD3C6684844221080A4A99FFBD3C66429F
:100300004242422020204E657720426573742100CE
:100310004D0020202020426573743A20004D004398
:100320003A20526573756D652047616D6500423AEC
:1003300020526573657420486967682053636F7243
:100340006500413A205469746C6520536372656599
:100350006E0050204120552053204520440020208D
:10036000433A2043616E63656C00412B423A20435F
:100370006F6E6669726D002020202E2E2E617265D0
:1003800020796F7520737572653F0052455345544F
:1003900020484947482053434F5245004D79206E2D
:1003A00065636B2100576879206D653F002E2E2E06
:1003B00068656C70004D79206261636B21004D7936
:1003C000206C6567732100446F6821004F75636876
:1003D0002E004D6564696321004F6F6F6621001028
:1003E000100100018003C005A01FF80F9017F83915
:1003F000EC1F9827FC7BB23FFCDBCF018001800320
:10040000C01010018003C005A003C007A009D00FD1
:10041000F81DD003E019B42FE817F83DE40180017E
:100420008003C01010010003C007E003F007E00FD5
:10043000F00FF81FF00FE01FF03FF81FF83FFC012E
:1004400080018003C010100080018003C007E01FFE
:10045000F80FF01FF83FFC1FF83FFC7FFE3FFCFF4A
:10046000FF0180018003C0080810183C72DB7E1871
:100470003C080808183C7EFF7E183C080810182C21
:100480005ABF18183C080808183C7EFF18183C088A
:100490000440FFFF02080400FFFF08080401FFFFFB
:1004A00020080410FFFF02450068010000F6E8DBA9
:1004B000CFC3B8AEA49B928A827B746E68625C578D
:1004C000524E4945413E3A3734312E2C29272523B7
:1004D000210A0A153A49676E6F7265006D560A0A5D
:1004E000504C45415345205455524E204F464620CE
:1004F000004C4F572042415454455259212000038B
:10050000053F213F1208120A100A0E1C0E0C1E0C89
:10051000141A14161F161E131E1E1B1E1E1F1E3F0E
:10052000213F3A2F3A173D173F213F181F02040A77
:10053000041F0E04040E1F0A1F0A0E0E1F04110EC4
:100540002E252E2F2A2E262929021F02081F0815C4
:100550000E04040E150E15151B151B040604040CC1
:10056000040000000017000300031F0A1F16371ABB
:100570001904130A153A000300000E11110E000AA7
:10058000040A040E040030000404040010001804DF
:10059000031F111F121F101D151711151F07041F10
:1005A00017151D1F151D01011F1F151F17151F00F2
:1005B0000A00003200040A110A0A0A110A0401158D
:1005C000020E11171E051E1F150A0E110A1F110E0D
:1005D0001F15111F05010E111D1F041F111F1108EA
:1005E000100F1F041B1F10101F061F1E040F0E11DB
:1005F0000E1F09060E112E1F051A121509011F01E3
:100600001F101F0F180F1F0C1F1B041B031C0319A7
:100610001513001F11030418111F000201022020EE
:10062000200001020C121E1F120C0C12120C121FC1
:100630000C1A14041E05242A1E1F021C141D10204F
:10064000201D1F0814111F101E041E1E021C0C1258
:100650000C3E0A040C123E1E040214160A020F126B
:100660000E101E0E100E1E081E120C1226281E3210
:100670002A26041E21001F00211E040102013F2121
:100680003F172B152010204C4F4144455200172B8B
:10069000162013140000000000240027002A000088
:1006A000000000250028002B000A4E6F2053442034
:1006B00063617264206F720A6E6F204C4F41444533
:1006C000522E4845580A0A153A45786974001D208B
:1006D000466C617368696E670A20206C6F6164659F
:1006E000722E2E2E0A0A444F4E2754205455524E35
:1006F000204F46462100000000002300260029006C
:1007000004040404040404040202020202020303B7
:1007100003030303010204081020408001020408BF
:10072000102001020408102000000008000201004F
:10073000000304070000000000000000201A11243C
:100740001FBECFEFD8E0DEBFCDBF11E0A0E0B1E02B
:10075000E0E2FCE302C005900D92AC37B107D9F797
:1007600027E0ACE7B1E001C01D92AE33B207E1F77C
:1007700013E0CFE9D3E004C02197FE010E94EF1DF2
:10078000CE39D107C9F70E942B1A0C940E1E0C9477
:100790000000EEE8F1E0168A108E178A12821182AC
:1007A000148213821682158210861782799684E04D
:1007B000EE3AF80781F70895E4EAF1E080E090E08E
:1007C000208121110CC029E1289FF001299FF00D03
:1007D0001124E257FE4F81E0868BCF0108950196E8
:1007E00079968032910561F780E090E00895EF926C
:1007F000FF920F931F93CF93DF93A0918C01B09141
:100800008D0152962C915297211129C0FC018081B3
:10081000EF01C80FD11DC80FD11DE980FA800585F1
:100820001685238534858C91FD01E80FF11DE80FB5
:10083000F11D418152811D966D917C911E971B96F1
:100840008D919C911C970E94B516882341F0E091F0
:100850008C01F0918D018EE896E0908F878BDF916F
:10086000CF911F910F91FF90EF900895EF92FF921B
:100870000F931F93CF93DF93EC01A0918C01B09164
:100880008D018881FE01E80FF11DE80FF11DE18067
:10089000F2800D851E852B853C858C91FD01E80F2E
:1008A000F11DE80FF11D418152811D966D917C91E2
:1008B0001E971B968D919C911C970E94B5168823BC
:1008C00041F0E0918C01F0918D018EE896E0908FDF
:1008D000878BDF91CF911F910F91FF90EF9008953B
:1008E0002F923F924F925F926F927F928F929F9240
:1008F000AF92BF92CF92DF92EF92FF920F931F932E
:10090000CF93DF93CDB7DEB72A970FB6F894DEBF4B
:100910000FBECDBF4AE0242E312C50E8852E912CFD
:10092000A12CB12C06E314E064E0462E512C612C7E
:10093000712C0E940E1C20E930E040E050E00E9443
:10094000321C6B017C0120E3C20ED11CE11CF11CA6
:100950000E940E1CA50194010E94321C69837A83B7
:100960008B839C830E94DC039E838D830097C1F15F
:10097000FC01108F078B29813A8134872387D68623
:10098000C58631E03787108212861186128A0E944E
:100990000E1CA30192010E94321C61307105810579
:1009A0009105A9F03CF4672B682B692BC9F425E469
:1009B00034E012C0623071058105910559F0633051
:1009C00071058105910561F42FED33E005C023E247
:1009D00034E002C021E034E0ED81FE8132832183E6
:1009E0000E940E1C20E930E040E050E00E94321CE2
:1009F0006B017C0130E3C30ED11CE11CF11C0E9491
:100A00000E1CA50194010E94321C69837A838B839A
:100A10009C830E94DC039E838D830097C1F1FC01BF
:100A2000108F078B29813A8134872387D686C58624
:100A300031E03787108212861186128A0E940E1CBE
:100A4000A30192010E94321C61307105810591055C
:100A5000A9F03CF4672B682B692BC9F425E834E036
:100A600012C0623071058105910559F0633071053E
:100A70008105910561F427E634E005C02BE734E0F9
:100A800002C021E734E0ED81FE813283218331E031
:100A9000231A310809F04DCF0AE010E080E9C82E92
:100AA000D12CE12CF12C90E8892E912CA12CB12C89
:100AB00027EF222E23E0322E34E0432E512C612CDE
:100AC000712C0E940E1CA70196010E94321C9B01F2
:100AD000AC01205D3F4F4F4F5F4F29833A834B83DB
:100AE0005C830E940E1CA50194010E94321C6D8340
:100AF0007E838F8398870E94DC039A87898700977B
:100B0000D1F1FC01308E278A2D813E8134872387E5
:100B100049815A815687458751E05787108212864E
:100B20001186128A0E940E1CA30192010E94321C9F
:100B30006130710581059105A9F03CF4672B682BA4
:100B4000692BC9F421EA34E012C0623071058105D5
:100B5000910559F0633071058105910561F42FE825
:100B600034E005C02BE934E002C025E934E0E98532
:100B7000FA85328321830150110909F0A2CF2A9608
:100B80000FB6F894DEBF0FBECDBFDF91CF911F919E
:100B90000F91FF90EF90DF90CF90BF90AF909F901C
:100BA0008F907F906F905F904F903F902F9008951F
:100BB000609180017091810185E097E00E94D217D9
:100BC0006DE173E085E097E00E94F51120918001CE
:100BD0003091810180917D0190917E018217930770
:100BE0001CF463E073E010C062E173E085E097E01D
:100BF0000E94F51160917D0170917E0185E097E082
:100C00000E94D21760E173E085E097E00C94F51143
:100C10001F93CF93DF931F92CDB7DEB7682F192FA5
:100C200080E090E069830E941C1C6981681721F0B4
:100C300080E090E00E94241C81E090E00E941C1C57
:100C4000181749F0612F81E090E00F90DF91CF916C
:100C50001F910C94241C0F90DF91CF911F91089548
:100C6000CF9380E090E00E941C1CC82F81E090E0B0
:100C70000E941C1C282F30E0322F2227C9018C0F24
:100C8000911D90937E0180937D01109281011092BD
:100C900080010E94DC03FC01892B41F184E09BE090
:100CA000908F878B86E290E09487838783E190E042
:100CB000968785871786108A82E0818B87EF92E07E
:100CC000928381838BEE92E0948383838FED92E015
:100CD0009683858383ED92E09087878310821286C6
:100CE0001186128A138A80E1848B158AF0938D0114
:100CF000E0938C01CF910C947004809180019091CD
:100D0000810120917D0130917E012817390714F46B
:100D10000E9408060E94C9030C943006CF93DF930B
:100D2000EC018C8981508C8B82E0888389870E94BA
:100D3000D8058D85855090918801891B80930F0778
:100D40008B8590918A01891B80930E078D89811173
:100D50000EC085E591E00E948D170E940E1C29E0CF
:100D600030E040E050E00E94321C6F5F6D8BED89F7
:100D70008E2F90E0FC013197E930F10510F5EC5C25
:100D8000FF4F0C94EF1D69ED73E017C062ED73E047
:100D900014C06CEC73E011C067EC73E00EC06EEB36
:100DA00073E00BC065EB73E008C06DEA73E005C04B
:100DB00065EA73E002C06CE973E085E097E00E94A9
:100DC000F5118C89811104C0DF91CF910C947D06BF
:100DD000DF91CF910895FC01643508F053C0403392
:100DE00008F050C090A1742F759575957595262FB4
:100DF000062E000C330B542F57709230A1F4F901DA
:100E0000EC54FB4F84E57802E00DF11D1124808144
:100E100090E0052E02C0959587950A94E2F780959B
:100E2000982F91700AC0933041F4848581704627D1
:100E300040954170841303C014C0911112C084E521
:100E40007802200D311D1124F901EC54FB4F81E093
:100E500090E001C0880F5A95EAF780959081892328
:100E600010C084E57802200D311D1124F901EC54E5
:100E7000FB4F81E090E001C0880F5A95EAF790811E
:100E8000892B808308958F929F92AF92BF92CF92C9
:100E9000DF92EF92FF920F931F93CF93DF9382E342
:100EA0008093360781E090E0A0E0B0E080933207C5
:100EB00090933307A0933407B09335078FEF809357
:100EC0002707E0E8F7E7259134912130304C09F00D
:100ED00049C0E6E9F7E7E491E0931007E7E9F7E7AF
:100EE000E491E093BB06E8E9F7E7E491E093BC0600
:100EF000E9E9F7E7859194919093BE068093BD064A
:100F0000EBE9F7E7859194919093C0068093BF0633
:100F100088E08093E206EEE9F7E7E491E093E106EA
:100F2000EFE9F7E7E491E0932707E0EAF7E7859137
:100F300094919093D4068093D306E2EAF7E78591E3
:100F400094919093D6068093D506E4EAF7E78591CD
:100F500094919093D8068093D706E6EAF7E78591B7
:100F600094912CC09CE3909310071092BB06809341
:100F7000BC0680E293E09093BE068093BD0684EDAC
:100F800093E09093C0068093BF0688E08093E206CA
:100F90008093E1068CEA9DE09093D4068093D3067B
:100FA0008EED9DE09093D6068093D50684E79EE073
:100FB0009093D8068093D7068CE39FE09093DA064F
:100FC0008093D906C1E0C093B7066FEF70E085E06B
:100FD0000E94C21288E08093C10689E08093C20615
:100FE00087E08093C30686E08093C406D4E0D09364
:100FF000C50682E08093C60681E18093C7060E9401
:1010000034188CE39FE09093D2068093D106D0935E
:10101000D006C093DB068BE0809313078DE08093AE
:10102000120780E1809314078EE0809316078FE00B
:1010300080931507C0930D07C093250710922607CC
:10104000C0930C07EFEFF4E0E491EF5FE093090742
:10105000E0E0F5E0E491EF5FE0930A0781E095E0DE
:101060009093240780932307CFB7F89480917C0155
:10107000811127C0EAE0F7E08491EEE1F7E0949176
:10108000E82FF0E0EE0FFF1FEB56F94FA591B4915A
:10109000EC91E92321F461E08AE00E94561261E0BC
:1010A0008AE00E9486128CB580618CBD8CB580640C
:1010B0008CBD61E08DE00E94861261E08BE00E94B1
:1010C000861280917C018F5F80937C01CFBF8CB5AD
:1010D0008F7D8CBD8CB58C7F81608CBD8DB5816022
:1010E0008DBD8CB58C608CBD61E0809113070E9432
:1010F000861261E0809112070E94861261E0809161
:1011000014070E9486128091160718161CF461E0DD
:101110000E9486128091150718161CF461E00E9447
:10112000861280911607181674F460E00E94561219
:101130006AE070E080E090E00E945D1361E08091E1
:1011400016070E94561280911207082E000C990B68
:10115000FC01E050F94FE491F0E0EE0FFF1FE15683
:10116000F94F2591349130931A0720931907FC0108
:10117000EC5EF84FE491E093200780911307082E6E
:10118000000C990BFC01E050F94FE491F0E0EE0FF8
:10119000FF1FE156F94F25913491309318072093A2
:1011A0001707FC01EC5EF84FE491E0931F07809174
:1011B0001507082E000C990BFC01E050F94FE49143
:1011C000F0E0EE0FFF1FE156F94F25913491309377
:1011D0001C0720931B07FC01EC5EF84FE491E093A1
:1011E000210780911407082E000C990BFC01E05098
:1011F000F94FE491F0E0EE0FFF1FE156F94F259112
:10120000349130931E0720931D07FC01EC5EF84FCC
:10121000E491E093220781E20E94881884E10E9411
:1012200088188091100787FF03C08FE7809310070D
:101230008091100780680E94881880E20E948818B8
:101240008CE00E9488180E94A718C1E0C093E006B5
:1012500084E08093040782E890E09093EC0680930A
:10126000EB0640E060E08CED96E00E94E11361E067
:1012700070E083E00E94C2128091B100887F81609B
:101280008093B100F8941092800010928100109227
:1012900085001092840088E191E09093890080930A
:1012A0008800809181008860809381008091810016
:1012B00081608093810080916F00826080936F00D5
:1012C00078940E94B90C8091CD06813019F4109267
:1012D000E1061CC08091D0068823C9F380E00E94FB
:1012E0001D1886E890E09093EA068093E906109234
:1012F000EF061092EE06C093DD0689E08093F206B9
:101300001092F5061092F7061092F90680912707C1
:10131000882309F4F3C081E080930D0710920C0735
:1013200010920B071092CF06809325078093260713
:10133000C0E2D1E08CE0F82E07EA14E0EE24E3945A
:1013400099E0D92E0E94F60C8823E1F3FE018491E6
:10135000882319F0C0900A0701C0C12C20EB30E0AF
:1013600040E060E085E097E00E9470144CE04C0D96
:1013700021E231E060E085E097E00E947014109275
:101380000E07F0920F0760E271E085E097E00E949F
:10139000F51180910907982F990F890F81958D5A22
:1013A00080930E0780910A07982F990F890F8195D6
:1013B000835D80930F078091280784FF03C06CEA48
:1013C00070E002C068EA70E085E097E00E941912C0
:1013D00080910907982F990F890F81958D5A8093D5
:1013E0000E0780910F078F5F80930F078091E106B2
:1013F000882319F064EA70E002C060EA70E085E0DA
:1014000097E00E94191280910907982F990F890F70
:1014100081958D5A80930E0780910F078F5F80937F
:101420000F076CE970E085E097E00E941912809147
:10143000CD06813039F58091E1068F5F6091E2063B
:1014400087FD09C0082E000C990B70E06F5F7F4F7D
:101450000E94DB1D682F6093E10680E00E941D184A
:101460001093EA060093E9061092EF061092EE063A
:10147000E092DD06D092F2061092F5061092F70681
:101480001092F9068091CC068130B9F0809127073F
:10149000482F50E060E070E0809028079090290786
:1014A000A0902A07B0902B0784169506A606B706CB
:1014B00008F4A2C08F3F09F49FC08FEF80932707E5
:1014C00080E00E941D1880E00E941D1884E990E0D1
:1014D0009093EA068093E9061092EF061092EE06CA
:1014E00081E08093DD0699E09093F2061092F50674
:1014F0001092F7061092F9068093CF06C090D1069D
:10150000D090D206C094D094E12CF12C0E943813D4
:101510004B015C010E943813A50194012095309580
:101520004095509560957095809590950E94BF1D4F
:101530009B01AC01C701B6010E94BF1D4B015C01BC
:101540008091B8069091B9066C01E12CF12C0E94B3
:101550003813C60ED71EE81EF91EC701B601680D66
:10156000791D8A1D9B1D611571058105910511F07D
:101570000E94131CE4EAF1E0AEE8B1E01082EF0152
:101580002D9718822196188258961C921E92579772
:1015900012961C921E92119714961C921E921397EB
:1015A00016961C921E92159718961C921E921797CB
:1015B00028961882219618822196188221961882E0
:1015C0007996599684E0AE3AB807C1F610928B012D
:1015D00010928A011092890110928801DF91CF91B7
:1015E0001F910F91FF90EF90DF90CF90BF90AF9041
:1015F0009F908F900C9430068091CE06813009F038
:10160000A1CE0E94E7189ECEDF92EF92FF920F9339
:101610001F93CF93DF93EC0129898D859E85820FDF
:10162000911D9E878D8718821A868091CA068150E7
:101630008E3F70F48A8981110BC02889243041F5CE
:1016400083E088838B859C85820F911D9C878B8787
:101650008091C80681508E3F80F48A8981110DC027
:1016600028892430B9F483E0888381E08A878B85D8
:101670009C85821B91099C878B878091CD06813048
:1016800059F08091CD0681508E3F08F0CDC009C041
:1016900081E0D7CF81E0E8CF81E491E00E948D170F
:1016A000F0CF8B89811104C085E08B8B8AE08A8B17
:1016B0008091CC06813009F4B9C08091CC0681506C
:1016C0008E3F08F4B8C082E0888B8091CE068130CE
:1016D00009F050C089E191E00E948D1710927F01BE
:1016E00012E104E18EE1F82E9CE0E92E23E2D22EF5
:1016F0000E94F60C8823E1F30E94D80580917F01B7
:1017000010930F07882309F4A3C0E0920E076BE83B
:1017100073E085E097E00E94191267E773E085E0C7
:1017200097E00E941912D0920F076AE673E085E0F5
:1017300097E00E9419126EE573E085E097E00E9441
:1017400019128091CC0681508E3F08F079C08091AB
:10175000CD0681508E3F08F073C081E080937F01F9
:1017600080E090E00E9408061092810110928001B2
:101770000E947D068A89882329F081508A8B82E025
:10178000888301C01A8A8B89882311F081508B8B42
:101790008B859C8597FF02C01C861B868B859C854C
:1017A0008937910524F088E790E09C878B878D85A9
:1017B0009E85893D910524F1EEE8F1E080E090E01E
:1017C000DC01A257BE4F1F962C911F97213061F468
:1017D00056961C92108E178A1282118214821382DE
:1017E000168215821086178249967996803223E0F8
:1017F000920731F783E190E09E878D870E94700405
:1018000029898091800190918101820F911D90938F
:10181000810180938001DF91CF911F910F91FF9003
:10182000EF90DF900C94D8051A8A42CF8DE291E0B8
:101830000E948D1742CF8A89811145CF84E044CF21
:101840008091CE06813009F053CF10927F0150CFA6
:1018500000930E0762E573E085E097E00E9419129D
:10186000F0920F0762E473E085E097E00E9419129E
:101870006EE273E085E097E00E9419126FE173E079
:1018800085E097E00E9419128091CC06813029F4FE
:101890000E94C9030E9443076DCF8091CD0681301D
:1018A00051F08091CE06813009F022CF85E091E0A1
:1018B0000E948D175FCF80937F01F3CF9F92AF92ED
:1018C000BF92CF92DF92EF92FF920F931F93CF932D
:1018D000DF93F82EE62EB22E03E0020FD0E0C3E035
:1018E0008AEFC82E1EEF842F8170982EAA24A3940D
:1018F000A20E4270D42EDF5F802F8B19180F992013
:1019000081F04C2F440F4A0D6E2D6C1B8D2F8F0DC7
:101910000E94081A402F6E2D6D1B8C2F8F0D0E9478
:10192000081ADD2081F04C2F440F4A0D6E2D6C1BE0
:101930008F2D8D1B0E94081A402F6E2D6D1B8F2D31
:101940008C1B0E94081ADC1744F417FD04C0C15018
:10195000C394C3941C0D0E5FCECFDF91CF911F9126
:101960000F91FF90EF90DF90CF90BF90AF909F903E
:1019700008958091D3069091D406892BB1F180917E
:10198000DB068F7169F584E10E942113BC01990F78
:10199000880B990B0E94C61C26EE3FE34EEC50E4E8
:1019A0000E942A1D0E94951C9B017093D206609391
:1019B000D106672B91F084E08093D006E3EDF6E04A
:1019C00080E0419151912417350718F48093D00697
:1019D00008958F5F8430A9F703C08FEF8093D006FE
:1019E0008091DB068F5F8093DB0608954F925F92B4
:1019F0006F927F928F929F92AF92BF92CF92DF921F
:101A0000EF92FF920F931F93CF93DF9300D000D0FC
:101A10001F92CDB7DEB740913707509138076091DC
:101A2000390770913A072FB7F8948091840190910B
:101A30008501A0918601B09187012FBF481B590BEA
:101A40006A0B7B0B8091360790E0A0E0B0E000913C
:101A500032071091330720913407309135078417EE
:101A60009507A607B70730F40115110521053105C3
:101A700009F047C3012B022B032B09F040C38091CF
:101A8000CE0681508E3FC0F58091CD068130C9F5DC
:101A90008091E1068F5F6091E20687FD09C0082E04
:101AA000000C990B70E06F5F7F4F0E94DB1D682F69
:101AB0006093E1068EE896E090933C0780933B07A5
:101AC00088E480933D0780E00E941D1887EA94E037
:101AD0009093EA068093E9061092EF061092EE06C4
:101AE00081E08093DD0689E08093F2061092F5068E
:101AF0001092F7061092F9068091CE0681508E3F23
:101B000070F48091CC06813009F0A7C381E896E09B
:101B100090933C0780933B0788E480933D0780E0E7
:101B20000E9420198091DD06882309F4ADC08091C0
:101B3000F1068111A9C08091E9069091EA06E09131
:101B4000EE06F091EF06EE0FFF1FE80FF91F25914B
:101B5000349121153105F1F42091ED06222331F065
:101B60001092EF061092EE06FC0112C01092DD06F4
:101B70008091DC06882341F080E00E942019E091EA
:101B8000EE06F091EF062DC080E00E9408187CC0A0
:101B900025913491C901969587959695879520FF53
:101BA00053C0B90116E0769567951A95E1F76F7104
:101BB000932F96959695969590518F70823081F1DE
:101BC00008F5811117C06B3008F06AE06093F206E7
:101BD000E091EE06F091EF063196F093EF06E09378
:101BE000EE06EE0FFF1F8091E9069091EA06E80FDE
:101BF000F91FCECF813061F740E08CED96E00E9476
:101C0000E113E6CF8330B1F0843011F78091E00624
:101C1000689F602D11246093F9069093FA06D8CF3F
:101C20008091E006689F602D11246093F5069093E3
:101C3000F606CECF8091E006689F602D1124609358
:101C4000F7069093F806C4CF8F738093F0068091C7
:101C5000E006839F802D11248093F10610920107E6
:101C6000109200071092FF0681E08093F3068093A4
:101C7000B6061092F4068091EE069091EF0601965A
:101C80009093EF068093EE068091F306882309F483
:101C9000EEC08091F106811103C00E940818E7C0D0
:101CA00081508093F10680910107811146C02091F7
:101CB000FF06309100072F5F3F4FC901880F991F22
:101CC000E091FB06F091FC06E80FF91F6591749115
:101CD000862F877080930207AB01E3E05695479506
:101CE000EA95E1F7CA0196958795972F969596956F
:101CF000909303078F739091E006899F802D1124A4
:101D00008093010741704093830130930007209333
:101D1000FF068091FD0690E02817390770F02091AA
:101D2000FE06222339F0821B9109909300078093CD
:101D3000FF0603C080E00E940818809101078150CF
:101D4000809301078091F40621E0280F2093F40688
:101D50004091F00630910307340F8091E806380F68
:101D60003093DE066091F706662371F070E0822FF3
:101D7000022E000C990B0E94DB1D8091F806869FB5
:101D8000300D11243093DE068091DE0690E08496BB
:101D900064E270E00E94DB1D8093DE063091F20663
:101DA0003093DF066091F506662381F0062E000C65
:101DB000770B822F022E000C990B0E94DB1D809165
:101DC000F606869F300D11243093DF066091F906E8
:101DD0006623A1F0822F220F990B70E00E94DB1D79
:101DE000CB0162E070E00E94DB1D2091FA06909129
:101DF000DF06289F900D11249093DF068091DF0667
:101E00004F3341F08A300CF089E087FD80E0809309
:101E1000DF0602C01092DF06F894E091DE06F0E0E3
:101E2000E355FB4FE491E09382013091DF0620916E
:101E30000407320390011124409102074203C001BC
:101E4000439F900D11240090E10602C0880F991F56
:101E50000A94E2F797FF02C081589F4F880F892F9D
:101E6000881F990B8093B4068093B506789480916F
:101E70003D07882309F48FC08C3020F49CE0E92EC4
:101E8000E81A01C0E12CFF24F394F0920D071092A0
:101E900025071092260730910A074DE2D42E1D2DFA
:101EA000131B1E0D03E0030F2EE4412F63E085E0BA
:101EB00097E03D830E94B2153D810CEF030F1D5F3B
:101EC000202F41E0612F80E50E945E0C202F42E030
:101ED000612F83E00E945E0CF0922507F0922607A6
:101EE00000910A0713E0100FD01ADE0C23E04D2DED
:101EF000622F85E097E02D830E94EB062D812F5FF6
:101F00002135A9F71D0DFF24FA94F10E23E04F2D82
:101F1000622F85E097E02D830E94EB062D812F5FD5
:101F20002135A9F7035033E0D30E402F6D2D80E00B
:101F30000E94081A402F6D2D83E50E94081A41E087
:101F40006D2D83E00E948A1942E06D2D80E50E948C
:101F50008A19145044E0612F80E50E948A1948E0F4
:101F6000612F83E00E948A1984E080930E0780919C
:101F70000A07E81A8E2D815D80930F0760913B0759
:101F800070913C0785E097E00E94F51180913D0734
:101F9000815080933D078091D3069091D406892B80
:101FA00009F485C011E0109325071092260790913F
:101FB000090785E5891B80930E0710920F07609132
:101FC000D006613009F454C030F08091CF066530FE
:101FD00008F066C061C080E00E941D1810930D07D4
:101FE000EFEFF4E0E491EF5FE0930907E0E0F5E064
:101FF000E491EF5FE0930A0781E095E09093240776
:10200000809323071092D4061092D30610920B07E8
:1020100018EA0E94F60C8823E1F361EF74E085E092
:1020200097E00E94F5114091D1065091D20660E0F0
:1020300070E02AE085E097E00E94A5116CED74E065
:1020400085E097E00E94F511612F62956F7070E056
:1020500085E097E00E94D21761ED74E085E097E09B
:102060000E94F5118091CC06813009F0FCC01FC0A0
:102070008091280790912907A0912A07B0912B07FA
:102080008F709927AA27BB270897A105B10510F4DF
:1020900067E009C068E707C0882349F06B5F03C0A9
:1020A000882329F06FE285E097E00E94EE110E94FC
:1020B000A71880910B0781110EC088EF91E0E4EB27
:1020C000F4E0DF019C011D9221503040E1F71092B5
:1020D0000E0710920F070E94381360933207709317
:1020E0003307809334079093350720912E07309162
:1020F0002F07621B730B70932D0760932C0780E0F2
:10210000CCC02FB7F8948091840190918501A09163
:102110008601B09187012FBF20913607820F911D54
:10212000A11DB11D8093370790933807A0933907FD
:10213000B0933A078091280790912907A0912A0728
:10214000B0912B070196A11DB11D80932807909394
:102150002907A0932A07B0932B07109232071092F9
:10216000330710923407109235070E94381360939A
:102170002E0770932F07809330079093310780913B
:10218000B8069091B9062FE0289F8001299F100D75
:10219000112485E10E942113800F911F24E0969560
:1021A00087952A95E1F79093B9068093B806209118
:1021B000B706222309F44BC06091BB06262F30E0FE
:1021C00040E050E029833A834B835C83C090BC0697
:1021D000D12CE12CF12C4091BF065091C0064A0150
:1021E000A12CB12C2091BD063091BE062901612C95
:1021F000712C8217930728F09C014817590708F49F
:102200009A01C901A0E0B0E09C01AD012419350993
:102210004609570969817A818B819C816C197D09F6
:102220008E099F090E94BF1DA5019401241935093B
:10223000460957090E94321CC20ED31EE41EF51E29
:10224000C092BA066C2D70E085E00E94C2120E9416
:1022500034180E94B90C81E020C0893209F05FCCAB
:102260000E94E7185CCC115009F0D3CE60E070E01A
:1022700085E00E94C21283B7817F846083BF83B7E9
:10228000816083BF83B7816083BF889583B78E7F6A
:1022900083BF83B78E7F83BFBCCE0F900F900F900C
:1022A0000F900F90DF91CF911F910F91FF90EF90C2
:1022B000DF90CF90BF90AF909F908F907F906F9066
:1022C0005F904F900895CF92DF92EF92FF920F931D
:1022D0001F93CF93DF936C017A018B01C0E0D0E0B4
:1022E000CE15DF0589F0D8016D918D01D601ED91F4
:1022F000FC910190F081E02DC6010995892B11F424
:102300007E0102C02196ECCFC701DF91CF911F91D2
:102310000F91FF90EF90DF90CF9008950E94091EDB
:102320006115710579F0FB0101900020E9F7319703
:10233000AF01461B570BDC01ED91FC910280F3814C
:10234000E02D099480E090E008954F925F926F92A3
:102350007F92EF92FF920F931F93CF93DF93CDB7AE
:10236000DEB7A1970FB6F894DEBF0FBECDBF7C01DC
:10237000FA01CB0119A2223008F42AE08E010F5D88
:102380001F4F422E512C612C712CBF01A3019201D1
:102390000E94641CF901CA01015011096A3014F449
:1023A000605D01C0695CD8016C93232B242B252B25
:1023B00061F7B801C7010E949011A1960FB6F89479
:1023C000DEBF0FBECDBFDF91CF911F910F91FF9068
:1023D000EF907F906F905F904F900895DC01ED91AA
:1023E000FC910190F081E02D0994EF92FF920F9300
:1023F0001F93CF93DF938C017B01C0E0D0E0F70106
:10240000EC0FFD1F6491662361F0D801ED91FC9102
:102410000190F081E02DC8010995892B11F02196DA
:10242000EECFCE01DF91CF911F910F91FF90EF90F2
:1024300008950F931F93CF93DF93EC010E94F51142
:102440008C0161E771E0CE010E949011800F911F15
:10245000DF91CF911F910F910895833081F028F47F
:10246000813099F08230A1F008958730A9F088304A
:10247000B9F08430D1F4809180008F7D03C08091C9
:1024800080008F7780938000089584B58F7702C095
:1024900084B58F7D84BD08958091B0008F7703C08F
:1024A0008091B0008F7D8093B00008951F93CF93EB
:1024B000DF93282F30E0F901E85DF84F8491F901AE
:1024C000EC5EF84FD491F901E050F94FC491CC2360
:1024D000C9F0162F81110E942D12EC2FF0E0EE0FA3
:1024E000FF1FE156F94FA591B4918FB7F8941111E0
:1024F00005C09C91ED2FE095E92302C0EC91ED2BF6
:10250000EC938FBFDF91CF911F910895CF93DF930D
:1025100090E0FC01EC5EF84F2491FC01E050F94F93
:102520008491882361F190E0880F991FFC01EB569C
:10253000F94FC591D491FC01E156F94FA591B491A1
:10254000611109C09FB7F894888120958223888300
:10255000EC912E230BC0623061F49FB7F894388160
:10256000822F809583238883EC912E2B2C939FBF01
:1025700006C08FB7F894E8812E2B28838FBFDF9198
:10258000CF9108951F93CF93DF93182FEB0161E054
:102590000E948612209711F460E004C0CF3FD1055D
:1025A00039F461E0812FDF91CF911F910C94561285
:1025B000E12FF0E0E85DF84FE491E330F9F048F402
:1025C000E130B9F0E230A1F584B5806284BDC8BDC8
:1025D00034C0E730E9F0E83019F1E43049F5809192
:1025E0008000806280938000D0938B00C0938A002B
:1025F00024C084B5806884BDC7BD1FC080918000A1
:10260000806880938000D0938900C093880015C0B3
:102610008091B00080688093B000C093B3000DC07B
:102620008091B00080628093B000C093B40005C078
:10263000C038D1050CF0B5CFAFCFDF91CF911F914E
:1026400008958E3008F08E508770806480937C00EF
:1026500080917A00806480937A0080917A0086FD70
:10266000FCCF809178002091790090E0922B089522
:102670003FB7F8948091B0049091B104A091B20456
:10268000B091B30426B5A89B05C02F3F19F0019661
:10269000A11DB11D3FBFBA2FA92F982F8827820FE8
:1026A000911DA11DB11DBC01CD0142E0660F771F38
:1026B000881F991F4A95D1F708958F929F92AF92E4
:1026C000BF92CF92DF92EF92FF926B017C010E944A
:1026D00038134B015C01C114D104E104F104F1F0A1
:1026E0000E943813DC01CB0188199909AA09BB099A
:1026F000883E9340A105B10570F321E0C21AD108CC
:10270000E108F10888EE880E83E0981EA11CB11C38
:10271000C114D104E104F10419F7DDCFFF90EF906B
:10272000DF90CF90BF90AF909F908F9008951F92B1
:102730000F920FB60F9211242F933F938F939F9375
:10274000AF93BF938091840190918501A091860100
:10275000B09187013091AF0423E0230F2D3720F48F
:102760000196A11DB11D05C026E8230F0296A11DEB
:10277000B11D2093AF048093840190938501A093B1
:102780008601B09387018091B0049091B104A0912B
:10279000B204B091B3040196A11DB11D8093B004A1
:1027A0009093B104A093B204B093B304BF91AF91DE
:1027B0009F918F913F912F910F900FBE0F901F907F
:1027C000189550E0DA01AA0FBB1FA80FB91F1F967A
:1027D0003C911F9750962C915097E32FF22FE60FC4
:1027E000F11DE60FF11D6591749190967C936E93A7
:1027F0005F97FB0125913491FC013481329F202D9C
:102800001124DC01A40FB51F91962C939197FB0125
:1028100085919491E92FF0E0822F90E0E817F90775
:1028200020F4FB0185919491292F239F202D1124C1
:1028300092962C9308958091B606882319F0809182
:10284000B50601C080E08093B40008951F920F92F6
:102850000FB60F9211242F933F934F935F936F9373
:102860007F938F939F93AF93BF93EF93FF93609169
:10287000B406662321F18091AE048F5F8093AE048D
:10288000909182018917D8F09091B60681E089274E
:102890008093B6061092AE0480918301882369F07C
:1028A0008091000193E4899F802D1124895B80939E
:1028B00000010E94CF1D9093B5060E941B14FF914A
:1028C000EF91BF91AF919F918F917F916F915F91A8
:1028D0004F913F912F910F900FBE0F901F90189521
:1028E0004F925F926F927F928F929F92AF92BF9220
:1028F000CF92DF92EF92FF920F931F93CF93DF93CC
:10290000F901C49031965491EC0108A164350CF0A2
:1029100018C10C2C000CDD08A62F062E000CBB0BDA
:102920007D01EC0CFD1C1E141F040CF00AC1403389
:102930000CF007C1A52E842E042E000C9908F4017A
:10294000E50FF11D57FDFA951E161F060CF0F9C094
:102950002E5F3F4FE6012796D7FD279673E0D5956A
:10296000C7957A95E1F747FF0AC0A52EA40EC89D2A
:10297000A001C99D500D1124241B350B40E0EA2D08
:102980000A2C000CFF0BE40FF11D47FDFA95F1979F
:102990001CF050E3A52EA41A67FD60E0F701E535B1
:1029A000F10514F0E4E5F0E07E2FFC01D484D42698
:1029B000862F062E000C990BFC01EA1BFB0BDF0196
:1029C0007F01F7E0EF22FF24E0E8F0E002C0F59598
:1029D000E795EA94E2F71E2FB7FD179653E0B595F9
:1029E000A7955A95E1F72A0F3B1FE42FE77051E0B6
:1029F00001C0550FEA95EAF7459545954595B4E52B
:102A00004B02800D911D11248C549B4FC12C0A2C1C
:102A1000000CBB08992493942E015524EC2DF0E072
:102A2000EA15FB050CF08DC0F90144910130E1F489
:102A30007C01A12F862E881AB82DBE0DB71708F07D
:102A400077C0B42FBA2321F0E701B881B52BB88342
:102A5000B0E0B595A795109719F431964491A0E888
:102A6000DFEFED1AFD0AE8CF01111FC0752E70943B
:102A70007C01A12FF901862E881AB82DBE0DB7173B
:102A800008F056C0B42FBA2321F0E701B881B7216E
:102A9000B883B0E0B595A795109719F43196449195
:102AA000A0E8DFEFED1AFD0AE8CF033031F07C013A
:102AB000A12FF901862E881A37C0752E7094862EA4
:102AC0007C01A12FF9018716D8F4B42FBA2359F04D
:102AD000E701B881682C6D2460FE02C0B52B02C0EE
:102AE000B721E701B883B0E0B595A795109719F421
:102AF00031964491A0E88394DFEFED1AFD0AE3CF0D
:102B0000D92416C0B42FBA2321F0E701B881B52724
:102B1000B883B0E0B595A795109719F43196449114
:102B2000A0E8DFEFED1AFD0AB82DBE0DB71750F380
:102B3000550F19F48C5A9F4F51E0C394240D351D45
:102B40006DCFDF91CF911F910F91FF90EF90DF90AC
:102B5000CF90BF90AF909F908F907F906F905F903D
:102B60004F900895BF92CF92DF92EF92FF920F9312
:102B70001F93CF93DF931F92CDB7DEB77C01D62E84
:102B8000C42E002E000C110B040F111D47FD1A95C9
:102B90004C2D0C2C000C550B401751077CF4B12C1C
:102BA000B21654F46B2D6D0D4C2DC70129830E9474
:102BB000EB06B3942981F4CFC394EACF0F90DF9151
:102BC000CF911F910F91FF90EF90DF90CF90BF902A
:102BD00008956F927F928F929F92AF92BF92CF9201
:102BE000DF92EF92FF920F931F93CF93DF93EC014D
:102BF0006A3019F42D819885A1C06D3009F4A4C004
:102C00001885BA84D98488A083E58D150CF47FC01B
:102C10008FE28B150CF47BC08C8190E00197189F9C
:102C20009001199F300D1124C9018D0D911DD7FC04
:102C30009A95181619060CF06AC08D81819FC00103
:102C400011248B0D911DB7FC9A95181619060CF0DE
:102C50005EC09D2CCD2CE62EF12CEC2DED190E2E08
:102C6000000CFF0B8C8190E0E817F9070CF04EC0C8
:102C70000197E817F90779F0E89E9001E99E300D79
:102C8000F89E300D1124E20FF31F8E8D9F8DE80FFB
:102C9000F91F749001C0712C6B2CAB2C2A2D2B19B1
:102CA000022E000C330B8D8190E0281739075CF55C
:102CB00070FE10C0113031F44A2D6C2DCE010E94EF
:102CC000EB061DC0012F212F462D692DCE010E943C
:102CD000B21515C089A198A1891789F088A3113070
:102CE00031F44A2D6C2DCE010E94EB0607C0012F56
:102CF000212F462D692DCE010E94B21588A276940F
:102D0000A394610ECBCFC394910EA7CF88A2288540
:102D10003C818985329F800D112489879F81992369
:102D200099F0082E000C990B44E550E0239F4019C0
:102D300051091124481759073CF49D818A85299F20
:102D4000800D11248A87198681E090E0DF91CF9170
:102D50001F910F91FF90EF90DF90CF90BF90AF90B9
:102D60009F908F907F906F9008954F925F926F9297
:102D70007F928F929F92AF92BF92CF92DF92EF920B
:102D8000FF920F931F93CF93DF93FA01A490B12C7E
:102D90003196A491F701B4913196E4913C016A0C0B
:102DA0007B1C26153705A4F46901CB0ED11C8C15AC
:102DB0009D0574F4B0E04B018A0E9B1E08151905A1
:102DC0003CF4E801CE0FD11DFE016C177D0714F015
:102DD00080E092C0821793070CF08BC02901481A3B
:102DE000590A6017710724F4E801C61BD70B02C00B
:102DF000C0E0D0E06C147D041CF05601A81AB90A9A
:102E00008E169F061CF0DF01A61BB70B1C2FC0E817
:102E1000D0E0782E721A862E801A612F70E06A1721
:102E20007B07B4F6042DC82CC10ED12C802F90E066
:102E30008A159B050CF059C0FA012491FC0133E07E
:102E4000F595E7953A95E1F7329630E0295F3F4FE7
:102E500083E0359527958A95E1F7629FC001639FCE
:102E6000900D729F900D1124E80FF91FE40FF51FCC
:102E7000E491F0E0802F87709E0102C03595279580
:102E80008A95E2F7E223F323EF2B69F1F70124910E
:102E9000972C900EE92DF0E083E0F595E7958A9563
:102EA000E1F7329630E0295F3F4F93E03595279563
:102EB0009A95E1F7C29EC001C39E900DD29E900DDF
:102EC0001124E80FF91FEE0DFF1DE491F0E0892DAC
:102ED00087709E0102C0359527958A95E2F7E22317
:102EE000F323EF2B21F40F5FA1CF1F5F96CF81E07B
:102EF00003C0412C512C75CFDF91CF911F910F91C1
:102F0000FF90EF90DF90CF90BF90AF909F908F9009
:102F10007F906F905F904F900895CF93DF93EC0177
:102F200088818B3008F08AE08093F20640E06A8165
:102F30008CED96E00E94E1132E818091E0069C8149
:102F4000989F902D11249093F5062093F6062A85DC
:102F50009885989F902D11249093F7062093F8065A
:102F60002E859C85989F902D11249093F90620938F
:102F7000FA069A8928892093F006989F802D1124BB
:102F80008093F10610920107109200071092FF063D
:102F900081E08093F3068093B6061092F406DF91E9
:102FA000CF910895CF92DF92EF92FF920F931F93EC
:102FB000CF93DF936B01770FEE08FF08F7FE1BC07E
:102FC000EC016DE20E94EE118C0144275527BA01F5
:102FD0004C195D096E097F092AE0CE010E94A511F6
:102FE000800F911FDF91CF911F910F91FF90EF9074
:102FF000DF90CF9008952AE0B701A601DF91CF912D
:103000001F910F91FF90EF90DF90CF900C94A5113E
:10301000811112C01092F3061092F106109200076F
:103020001092FF061092F4061092B5061092B406A4
:103030001092B6060C941B140895811114C01092BE
:10304000F3061092F106109200071092FF061092FC
:10305000F4061092B5061092B4061092B6060E94BD
:103060001B141092DD060895CF92DF92EF92FF922B
:103070000F931F93CF93DF93C1ECD6E008EC16E0DB
:10308000FF24FA9497E0E92EE00E62E088810E9426
:103090008612288130E0F901E85DF84F8491F9014A
:1030A000EC5EF84FC490F901E050F94FD490DD2068
:1030B00071F081110E942D12ED2DF0E0EE0FFF1F37
:1030C000EA50F94FA591B491EC91EC21B1F4F801DB
:1030D00080818F5F808360E088810E9486122196C4
:1030E0000F5F1F4FE012D1CFDF91CF911F910F9152
:1030F000FF90EF90DF90CF900895F80180818823B2
:1031000071F3F8018F3F11F41082E5CFF082E3CF25
:10311000CF93C82FF89460E0809114070E94561254
:103120008091150718161CF460E00E945612CEBD5F
:1031300000000DB407FEFDCF8EB58091150718165F
:103140001CF461E00E9456127894CF9108950F9379
:103150001F93CF93809111078F5F8093110704EB2A
:1031600014E0C0E08C2F80640E94881880E80E94E0
:10317000881861E0809114070E945612809115070B
:1031800018161CF460E00E94561280E090E0F801EE
:10319000E80FF91F20812EBD00000DB407FEFDCF02
:1031A0002EB501968435910591F780911507181673
:1031B0001CF461E00E945612CF5F0C5A1F4FC630BC
:1031C00089F680E4CF911F910F910C94881888EFB5
:1031D00091E0E4EBF4E0DF019C011D9221503040CE
:1031E000E1F710920E0710920F076EEC76E085E083
:1031F00097E00E94F5110E94A7188CB583608CBDE2
:103200008DB58E7F8DBD84E791E0EEEFFFE30995EC
:1032100010920B0769EA76E085E097E00E941912A8
:103220000E94A7180E9434188091CC06813039F092
:1032300062E370E080E090E00E945D13F3CF0895B8
:10324000AF92BF92CF92DF92EF92FF920F931F93B4
:10325000CF93DF93C82ED12CE601C954D94F9DA13D
:10326000992309F44CC07E019FEFE91AF90AF7018E
:1032700095A1911144C09EA58601000F111F09540C
:10328000194FF80134A525A5E32FF22FE90FF11D01
:10329000E90FF11D259134912F3FFFEF3F0711F406
:1032A0001DA22DC039ABF601EE0FFF1FEF53F94FF2
:1032B0003327220F331F05A0F6A1E02DE20FF31FE5
:1032C000A590B490811117C00E941D18F801B3AAEF
:1032D000A2AAF601EE0FFF1FE753F94F16A215A29F
:1032E00081E0F70185A389E08BAF1EAEFE017B96DE
:1032F00015A2329615A229968DA18F5F8DA3DF911D
:10330000CF911F910F91FF90EF90DF90CF90BF90E2
:10331000AF900895AF92BF92CF92DF92EF92FF925B
:103320000F931F93CF93DF93182F062FC1E0D3E0A5
:103330008AEFD82E9EEFE92E842F8470C82E842F1A
:103340008270B82E842F8870A82E4170F42E8C2F96
:10335000880F8F5FE80ECC2081F04D2F400F6C2F2F
:10336000610F85E097E00E94EB064C2F400F6D2F18
:10337000610F85E097E00E94EB06BB2081F0402FB3
:103380004D1B6C2F610F85E097E00E94EB06402FEC
:103390004C1B6D2F610F85E097E00E94EB06AA2081
:1033A00081F04C2F400F612F6D1B85E097E00E944C
:1033B000EB064D2F400F612F6C1B85E097E00E94BC
:1033C000EB06FF2081F0402F4C1B612F6D1B85E029
:1033D00097E00E94EB06402F4D1B612F6C1B85E090
:1033E00097E00E94EB06CD1744F4E7FC04C0D150EF
:1033F000D394D394ED0CCF5FAACFDF91CF911F91DF
:103400000F91FF90EF90DF90CF90BF90AF90089515
:103410000F931F93CF93DF93182F062FD42FC0E065
:10342000CD174CF44C2F400F612F85E097E00E94A0
:10343000EB06CF5FF5CFDF91CF911F910F910895EC
:1034400010920807109207078DE691E09093060707
:10345000809305070895CF93DF93CDB7DEB72D97FF
:103460000FB6F894DEBF0FBECDBF789484B58260EE
:1034700084BD84B5816084BD85B5826085BD85B518
:10348000816085BD80916E00816080936E00109296
:103490008100809181008260809381008091810011
:1034A00081608093810080918000816080938000A2
:1034B0008091B10084608093B1008091B000816000
:1034C0008093B00080917A00846080937A0080912C
:1034D0007A00826080937A0080917A008160809384
:1034E0007A0080917A00806880937A001092C100FF
:1034F0000E9443070E94F60C811107C080E090E013
:10350000892BC1F30E940000F5CF4EE8E42E41E084
:10351000F42E8701D80156968C915697882341F056
:103520005796ED91FC915897309711F0C801099585
:10353000075E1F4FB4E00E3A1B0761F7E0918C0164
:10354000F0918D0186898823A9F1838594858A97D6
:1035500097FD05C090938B0180938A0104C010925F
:103560008B0110928A0180918A0190918B018D9735
:1035700034F08CE290E090938B0180938A018585F2
:1035800096850E9797FD05C09093890180938801D9
:1035900004C0109289011092880180918801909155
:1035A0008901813D910534F0E0EDF0E0F09389016F
:1035B000E093880134EAC32E31E0D32E812C912C84
:1035C000D6018C91882309F4CCC0F7012081F9E160
:1035D000F89DC001F99D900D1124820F911D820F5D
:1035E000911DFC01E257FE4FA180B280A114B104ED
:1035F00009F4B7C0F6013C97808131971081D7015B
:103600001D964C901D9790918801491A1B963C90ED
:1036100090918A01391A11110AC0811108C09501CF
:10362000442D632D85E097E00E9470149AC0F50147
:10363000949131960491692E712C9301295F3F4F2B
:10364000A90123E0559547952A95E1F75A834983C7
:10365000137091509D87292E1C867FEF700F202FAD
:1036600030E038872F833C85432F330F550B4615A9
:1036700057050CF076C04C8547FD495F459545954B
:1036800045959C85977897FF03C09150986F9F5FF1
:1036900020E830E002C0359527959A95E2F73C8303
:1036A0002B83372F512C042E000C550BDA01129668
:1036B000BE83AD83452D052C000C550BAF81B8851D
:1036C0004A175B070CF048C0A981BA814A9FF001F4
:1036D0004B9FF00D5A9FF00D11244D815E81E40F38
:1036E000F51FEA0DFB1DE491F0E0AB81BC81EA23FC
:1036F000FB23EF2B71F1123039F0133041F0113010
:1037000049F4422D652D08C0622D432F05C0632F5B
:103710004C8502C0452D6C85882369F0582F537065
:1037200080FF03C02D85261B622F81FF05C0802FDF
:10373000841B482F01C050E0630D440D85E097E0E5
:103740003A8759877B870E94EB065985852F7B85B1
:103750003A8553943150AECF2C852F5F2C872A9415
:1037600082CF4FEF841A940A59E1C50ED11C89E12A
:10377000E80EF11C90E28916910409F021CFBECE2B
:103780008F929F92AF92BF92CF92DF92EF92FF9271
:10379000CF93DF93EC01688179818A819B816115E8
:1037A00071058105910521F464E279ED8BE597E0DF
:1037B0002DE133EF41E050E00E94321C49015A01F3
:1037C0009B01AC01A7EAB1E40E94511C6B017C0192
:1037D000ACEEB4EFA50194010E945F1CDC01CB01AB
:1037E0008C0D9D1DAE1DBF1DB7FF03C00197A10924
:1037F000B04888839983AA83BB83BC01CD019F779E
:10380000DF91CF91FF90EF90DF90CF90BF90AF907E
:103810009F908F9008950E94C01B089581E091E0D1
:103820000E94C01B08956093010170930201809370
:103830000301909304010895F999FECF92BD81BDD3
:10384000F89A992780B50895262FF999FECF1FBAC7
:1038500092BD81BD20BD0FB6F894FA9AF99A0FBEB9
:1038600001960895052E97FB1EF400940E94491CB2
:1038700057FD07D00E94641C07FC03D04EF40C9443
:10388000491C50954095309521953F4F4F4F5F4FC4
:10389000089590958095709561957F4F8F4F9F4FBC
:1038A00008950E94861CA59F900DB49F900DA49F23
:1038B000800D911D11240895B7FF0C94511C0E9496
:1038C000511C821B930B0895A1E21A2EAA1BBB1B4D
:1038D000FD010DC0AA1FBB1FEE1FFF1FA217B307DC
:1038E000E407F50720F0A21BB30BE40BF50B661FF2
:1038F000771F881F991F1A9469F7609570958095B6
:1039000090959B01AC01BD01CF010895A29FB0012C
:10391000B39FC001A39F700D811D1124911DB29F03
:10392000700D811D1124911D08950E94091D88F0BC
:103930009F5798F0B92F9927B751B0F0E1F0660F73
:10394000771F881F991F1AF0BA95C9F714C0B130B4
:1039500091F00E94231DB1E008950C94231D672F60
:10396000782F8827B85F39F0B93FCCF386957795E3
:103970006795B395D9F73EF49095809570956195CC
:103980007F4F8F4F9F4F0895E89409C097FB3EF4F7
:1039900090958095709561957F4F8F4F9F4F99239C
:1039A000A9F0F92F96E9BB279395F695879577951A
:1039B0006795B795F111F8CFFAF4BB0F11F460FFDA
:1039C0001BC06F5F7F4F8F4F9F4F16C0882311F032
:1039D00096E911C0772321F09EE8872F762F05C046
:1039E000662371F096E8862F70E060E02AF09A95E1
:1039F000660F771F881FDAF7880F9695879597F9D6
:103A0000089557FD9058440F551F59F05F3F71F0CE
:103A10004795880F97FB991F61F09F3F79F0879535
:103A20000895121613061406551FF2CF4695F1DFBE
:103A300008C0161617061806991FF1CF869571054E
:103A4000610508940895E894BB2766277727CB0182
:103A500097F908950E943D1D0C94AE1D0E94A01D73
:103A600038F00E94A71D20F0952311F00C94971DAB
:103A70000C949D1D11240C94241D0E94011D70F3B3
:103A8000959FC1F3950F50E0551F629FF001729F03
:103A9000BB27F00DB11D639FAA27F00DB11DAA1F12
:103AA000649F6627B00DA11D661F829F2227B00D5F
:103AB000A11D621F739FB00DA11D621F839FA00DEA
:103AC000611D221F749F3327A00D611D231F849F3A
:103AD000600D211D822F762F6A2F11249F57504091
:103AE0009AF0F1F088234AF0EE0FFF1FBB1F661F0C
:103AF000771F881F91505040A9F79E3F510580F0D5
:103B00000C94971D0C94241D5F3FE4F3983ED4F36E
:103B1000869577956795B795F795E7959F5FC1F778
:103B2000FE2B880F911D9695879597F9089597F923
:103B30009F6780E870E060E008959FEF80EC089553
:103B400000240A941616170618060906089500247C
:103B50000A9412161306140605060895092E0394F6
:103B6000000C11F4882352F0BB0F40F4BF2B11F46A
:103B700060FF04C06F5F7F4F8F4F9F4F0895DB0141
:103B80008F939F930E94511CBF91AF91A29F800D74
:103B9000911DA39F900DB29F900D11240895991B24
:103BA00079E004C0991F961708F0961B881F7A9534
:103BB000C9F78095089597FB072E16F4009407D057
:103BC00077FD09D00E94F51D07FC05D03EF49095C5
:103BD00081959F4F0895709561957F4F0895EE0FE1
:103BE000FF1F0590F491E02D0994AA1BBB1B51E126
:103BF00007C0AA1FBB1FA617B70710F0A61BB70B5D
:103C0000881F991F5A95A9F780959095BC01CD0101
:103C1000089581E090E0F8940C940E1EF894FFCF84
:103C2000010100000001000000000000000400FB92
:103C3000FF000000003C0006000100000000000042
:103C40000004000500000000003700060004000129
:103C5000000100FFFF0100FEFF0000000010000453
:103C600000040000000100FFFF010002000000004E
:103C70000017000400060001000100FFFF00000023
:103C800000000000000000060000000000E91563CD
:0C3C9000110D0A004C4F41444552000049
:00000001FF
