:100000000C949F030C94C7030C94C7030C94C70370
:100010000C94C7030C94C7030C94C7030C94C70338
:100020000C94C7030C94C7030C94C7030C942A14B4
:100030000C94C7030C94C7030C94C7030C94C70318
:100040000C949B130C94C7030C94C7030C94C70324
:100050000C94C7030C94C7030C94C7030C94C703F8
:100060000C94C7030C94C703C706CA06CD06D00676
:10007000D306D606D906DC06DF060101FF0301011F
:10008000F7037E007A0005008930080238024978BB
:10009000681400000500380168010000175344008F
:1000A00016137800161314001510200015201000E8
:1000B000540A03E181867F3E186D830F0F0E018382
:1000C000866033186DC3198F1803C38E6033186DA3
:1000D000E330CF1803C39E603630CDE360CF3006E7
:1000E000C79E7E3E30CDB360CF300CC6F660333055
:1000F000D9B660CF33CFCCF66061B0DB1E60CF30B5
:10010000D86CE6C061B0DB1E618F19986CC6C06305
:10011000B19B0E330F0FB078C6FF7E1F1B061E0F5C
:100120000048300000000000000000000000000057
:100130000000003FC0000000000000003FC00000C1
:100140000000000000020000009200040000000017
:100150000001310006000000000001FF000F000058
:10016000080000017D001680000C0000007C007F6C
:10017000E00016000000CE003E40002D000100828D
:10018000005FE0005F80FF008200E7B0000C00FF2E
:100190000082007E60000C00200082009FF0001EA4
:1001A0000000000001EEC800000000000000FFF0A9
:1001B00000000000000000FFF0000000000000034D
:1001C0006F3C00000000010000060000000000037A
:1001D000FE0006000000000003FE000F000000000B
:1001E00000000C00000000000000000C00000000F7
:1001F00000000000000000000000000000000000FF
:1002000000000000000000000000000400000000EA
:1002100000000000040000000000000000060000D4
:10022000C18C006000000D001CC18C006000180D26
:100230000032C00C000000183FC030D38F36E3E717
:10024000181F801CE18DB6636D982F4006F18DB6A6
:10025000636D9874E026D18DB6636D803FC01CDF5E
:10026000EF3FFB67184F2000000000000000F6F091
:10027000000000000000007FE0000000000000011E
:10028000B6D80000000000000000000000000000E0
:10029000000000000000000000000000000000005E
:1002A000000000000000000000000000000000004E
:1002B000000000000000000000000000000000003E
:1002C000000000000000000000000000000000002E
:1002D000000000080A0818FFBDBD66442412090882
:1002E0000A1018FFBDBD24A5428100080A4A99FFE3
:1002F000BD3C6684844221080A4A99FFBD3C66429F
:100300004242422020204E657720426573742100CE
:100310004D0020202020426573743A20004D004398
:100320003A20526573756D652047616D6500423AEC
:1003300020526573657420486967682053636F7243
:100340006500413A205469746C6520536372656599
:100350006E0050204120552053204520440020208D
:10036000433A2043616E63656C00412B423A20435F
:100370006F6E6669726D002020202E2E2E617265D0
:1003800020796F7520737572653F0052455345544F
:1003900020484947482053434F5245004D79206E2D
:1003A00065636B2100576879206D653F002E2E2E06
:1003B00068656C70004D79206261636B21004D7936
:1003C000206C6567732100446F6821004F75636876
:1003D0002E004D6564696321004F6F6F6621001028
:1003E000100100018003C005A01FF80F9017F83915
:1003F000EC1F9827FC7BB23FFCDBCF018001800320
:10040000C01010018003C005A003C007A009D00FD1
:10041000F81DD003E019B42FE817F83DE40180017E
:100420008003C01010010003C007E003F007E00FD5
:10043000F00FF81FF00FE01FF03FF81FF83FFC012E
:1004400080018003C010100080018003C007E01FFE
:10045000F80FF01FF83FFC1FF83FFC7FFE3FFCFF4A
:10046000FF0180018003C0080810183C72DB7E1871
:100470003C080808183C7EFF7E183C080810182C21
:100480005ABF18183C080808183C7EFF18183C088A
:100490000440FFFF02080400FFFF08080401FFFFFB
:1004A00020080410FFFF02450068010000F6E8DBA9
:1004B000CFC3B8AEA49B928A827B746E68625C578D
:1004C000524E4945413E3A3734312E2C29272523B7
:1004D000210A0A153A49676E6F7265006D560A0A5D
:1004E000504C45415345205455524E204F464620CE
:1004F000004C4F572042415454455259212000038B
:10050000053F213F1208120A100A0E1C0E0C1E0C89
:10051000141A14161F161E131E1E1B1E1E1F1E3F0E
:10052000213F3A2F3A173D173F213F181F02040A77
:10053000041F0E04040E1F0A1F0A0E0E1F04110EC4
:100540002E252E2F2A2E262929021F02081F0815C4
:100550000E04040E150E15151B151B040604040CC1
:10056000040000000017000300031F0A1F16371ABB
:100570001904130A153A000300000E11110E000AA7
:10058000040A040E040030000404040010001804DF
:10059000031F111F121F101D151711151F07041F10
:1005A00017151D1F151D01011F1F151F17151F00F2
:1005B0000A00003200040A110A0A0A110A0401158D
:1005C000020E11171E051E1F150A0E110A1F110E0D
:1005D0001F15111F05010E111D1F041F111F1108EA
:1005E000100F1F041B1F10101F061F1E040F0E11DB
:1005F0000E1F09060E112E1F051A121509011F01E3
:100600001F101F0F180F1F0C1F1B041B031C0319A7
:100610001513001F11030418111F000201022020EE
:10062000200001020C121E1F120C0C12120C121FC1
:100630000C1A14041E05242A1E1F021C141D10204F
:10064000201D1F0814111F101E041E1E021C0C1258
:100650000C3E0A040C123E1E040214160A020F126B
:100660000E101E0E100E1E081E120C1226281E3210
:100670002A26041E21001F00211E040102013F2121
:100680003F172B152010204C4F4144455200172B8B
:10069000162013140000000000240027002A000088
:1006A000000000250028002B000A4E6F2053442034
:1006B00063617264206F720A6E6F204C4F41444533
:1006C000522E4845580A0A153A45786974001D208B
:1006D000466C617368696E670A20206C6F6164659F
:1006E000722E2E2E0A0A444F4E2754205455524E35
:1006F000204F46462100000000002300260029006C
:1007000004040404040404040202020202020303B7
:1007100003030303010204081020408001020408BF
:10072000102001020408102000000008000201004F
:10073000000304070000000000000000241A112438
:100740001FBECFEFD8E0DEBFCDBF11E0A0E0B1E02B
:10075000EAE2FCE302C005900D92A038B107D9F798
:1007600027E0A0E8B1E001C01D92A234B207E1F792
:1007700013E0CFE9D3E004C02197FE010E94F41DED
:10078000CE39D107C9F70E942F1A0C94131E0C946E
:100790000000E2E9F1E0168A108E178A12821182B7
:1007A000148213821682158210861782799684E04D
:1007B000E23BF80781F70895E8EAF1E080E090E095
:1007C000208121110CC029E1289FF001299FF00D03
:1007D0001124EE56FE4F81E0868BCF0108950196DD
:1007E00079968032910561F780E090E00895089550
:1007F00080E090E00895EF92FF920F931F93CF93C4
:10080000DF93A0919001B091910152962C91529753
:10081000211129C0FC018081EF01C80FD11DC80F33
:10082000D11DE980FA8005851685238534858C9154
:10083000FD01E80FF11DE80FF11D418152811D9668
:100840006D917C911E971B968D919C911C970E9497
:10085000B916882341F0E0919001F091910182E96D
:1008600096E0908F878BDF91CF911F910F91FF9032
:10087000EF900895EF92FF920F931F93CF93DF9322
:10088000EC01A0919001B09191018881FE01E80FE7
:10089000F11DE80FF11DE180F2800D851E852B858D
:1008A0003C858C91FD01E80FF11DE80FF11D4181A0
:1008B00052811D966D917C911E971B968D919C91F6
:1008C0001C970E94B916882341F0E0919001F091A5
:1008D000910182E996E0908F878BDF91CF911F91F4
:1008E0000F91FF90EF9008952F923F924F925F9259
:1008F0006F927F928F929F92AF92BF92CF92DF9230
:10090000EF92FF920F931F93CF93DF93CDB7DEB794
:100910002A970FB6F894DEBF0FBECDBF4AE0242E53
:10092000312C50EC852E912CA12CB12C0AE314E033
:1009300064E0462E512C612C712C0E94131C20E97E
:1009400030E040E050E00E94371C6B017C0120E366
:10095000C20ED11CE11CF11C0E94131CA5019401C4
:100960000E94371C69837A838B839C830E94DC03FB
:100970009E838D830097C1F1FC01108F078B298125
:100980003A8134872387D686C58631E0378710823F
:1009900012861186128A0E94131CA30192010E94E2
:1009A000371C6130710581059105A9F03CF4672B76
:1009B000682B692BC9F425E434E012C0623071055C
:1009C0008105910559F0633071058105910561F448
:1009D0002FED33E005C023E234E002C021E034E033
:1009E000ED81FE81328321830E94131C20E930E0D7
:1009F00040E050E00E94371C6B017C0130E3C30EE5
:100A0000D11CE11CF11C0E94131CA50194010E9441
:100A1000371C69837A838B839C830E94DC039E83CB
:100A20008D830097C1F1FC01108F078B29813A81DA
:100A300034872387D686C58631E0378710821286B1
:100A40001186128A0E94131CA30192010E94371C76
:100A50006130710581059105A9F03CF4672B682B85
:100A6000692BC9F425E834E012C0623071058105B4
:100A7000910559F0633071058105910561F427E610
:100A800034E005C02BE734E002C021E734E0ED811B
:100A9000FE813283218331E0231A310809F04DCFE2
:100AA0000AE010E080E9C82ED12CE12CF12C90EC6A
:100AB000892E912CA12CB12C2BEF222E23E0322E4B
:100AC00034E0432E512C612C712C0E94131CA70181
:100AD00096010E94371C9B01AC01205D3F4F4F4F98
:100AE0005F4F29833A834B835C830E94131CA501CB
:100AF00094010E94371C6D837E838F8398870E94A8
:100B0000DC039A8789870097D1F1FC01308E278A10
:100B10002D813E813487238749815A8156874587B5
:100B200051E05787108212861186128A0E94131C88
:100B3000A30192010E94371C613071058105910566
:100B4000A9F03CF4672B682B692BC9F421EA34E047
:100B500012C0623071058105910559F0633071054D
:100B60008105910561F42FE834E005C02BE934E0FC
:100B700002C025E934E0E985FA85328321830150FA
:100B8000110909F0A2CF2A960FB6F894DEBF0FBE66
:100B9000CDBFDF91CF911F910F91FF90EF90DF902C
:100BA000CF90BF90AF909F908F907F906F905F900D
:100BB0004F903F902F90089560918401709185012E
:100BC00089E097E00E94D6176DE173E089E097E035
:100BD0000E94F91120918401309185018091810159
:100BE00090918201821793071CF463E073E010C0B8
:100BF00062E173E089E097E00E94F9116091810160
:100C00007091820189E097E00E94D61760E173E05D
:100C100089E097E00C94F9111F93CF93DF931F9213
:100C2000CDB7DEB7682F192F80E090E069830E946E
:100C3000211C6981681721F080E090E00E94291C46
:100C400081E090E00E94211C181749F0612F81E09B
:100C500090E00F90DF91CF911F910C94291C0F9081
:100C6000DF91CF911F910895CF9380E090E00E9493
:100C7000211CC82F81E090E00E94211C282F30E029
:100C8000322F2227C9018C0F911D909382018093EE
:100C9000810110928501109284010E94DC03FC0105
:100CA000892B41F188E09BE0908F878B86E290E072
:100CB0009487838783E190E0968785871786108ADB
:100CC00082E0818B87EF92E0928381838BEE92E0CA
:100CD000948383838FED92E09683858383ED92E006
:100CE00090878783108212861186128A138A80E188
:100CF000848B158AF0939101E0939001CF910C942D
:100D0000740480918401909185012091810130913A
:100D100082012817390714F40E940C060E94C903A7
:100D20000C943406CF93DF93EC018C8981508C8B2B
:100D300082E0888389870E94DC058D8585509091AB
:100D40008C01891B809313078B8590918E01891BE1
:100D5000809312078D8981110EC085E591E00E9474
:100D600091170E94131C29E030E040E050E00E94FF
:100D7000371C6F5F6D8BED898E2F90E0FC013197F2
:100D8000E930F10510F5EC5CFF4F0C94F41D69EDB2
:100D900073E017C062ED73E014C06CEC73E011C037
:100DA00067EC73E00EC06EEB73E00BC065EB73E0B5
:100DB00008C06DEA73E005C065EA73E002C06CE943
:100DC00073E089E097E00E94F9118C89811104C0D9
:100DD000DF91CF910C948106DF91CF910895FC01B2
:100DE000643508F053C0403308F050C090A1742F10
:100DF000759575957595262F062E000C330B542F7F
:100E000057709230A1F4F901E854FB4F84E5780261
:100E1000E00DF11D1124808190E0052E02C0959512
:100E200087950A94E2F78095982F91700AC09330C5
:100E300041F484858170462740954170841303C036
:100E400014C0911112C084E57802200D311D1124C7
:100E5000F901E854FB4F81E090E001C0880F5A95FA
:100E6000EAF780959081892310C084E57802200DEF
:100E7000311D1124F901E854FB4F81E090E001C0DD
:100E8000880F5A95EAF79081892B808308958F9275
:100E90009F92AF92BF92CF92DF92EF92FF920F9309
:100EA0001F93CF93DF9382E380933A0781E090E032
:100EB000A0E0B0E08093360790933707A0933807FF
:100EC000B09339078FEF80932B07E0E8F7E7259180
:100ED00034912130304C09F049C0E6E9F7E7E4915C
:100EE000E0931407E7E9F7E7E491E093BF06E8E948
:100EF000F7E7E491E093C006E9E9F7E7859194917B
:100F00009093C2068093C106EBE9F7E7859194912F
:100F10009093C4068093C30688E08093E606EEE9CA
:100F2000F7E7E491E093E506EFE9F7E7E491E09372
:100F30002B07E0EAF7E7859194919093D806809388
:100F4000D706E2EAF7E7859194919093DA068093C9
:100F5000D906E4EAF7E7859194919093DC068093B3
:100F6000DB06E6EAF7E7859194912CC09CE3909329
:100F700014071092BF068093C00680E293E090931E
:100F8000C2068093C10684ED93E09093C4068093DB
:100F9000C30688E08093E6068093E5068CEA9DE030
:100FA0009093D8068093D7068EED9DE09093DA0655
:100FB0008093D90684E79EE09093DC068093DB065D
:100FC0008CE39FE09093DE068093DD06C1E0C09342
:100FD000BB066FEF70E085E00E94C61288E0809348
:100FE000C50689E08093C60687E08093C70686E041
:100FF0008093C806D4E0D093C90682E08093CA06E5
:1010000081E18093CB060E9438188CE39FE0909397
:10101000D6068093D506D093D406C093DF068BE026
:10102000809317078DE08093160780E1809318075F
:101030008EE080931A078FE080931907C093110701
:10104000C093290710922A07C0931007EFEFF4E02E
:10105000E491EF5FE0930D07E0E0F5E0E491EF5FEE
:10106000E0930E0781E095E090932807809327078F
:10107000CFB7F89480918001811127C0EAE0F7E0B2
:101080008491EEE1F7E09491E82FF0E0EE0FFF1F7E
:10109000EB56F94FA591B491EC91E92321F461E06D
:1010A0008AE00E945A1261E08AE00E948A128CB59E
:1010B00080618CBD8CB580648CBD61E08DE00E9448
:1010C0008A1261E08BE00E948A12809180018F5F1A
:1010D00080938001CFBF8CB58F7D8CBD8CB58C7F0C
:1010E00081608CBD8DB581608DBD8CB58C608CBDF3
:1010F00061E0809117070E948A1261E080911607D3
:101100000E948A1261E0809118070E948A128091E1
:101110001A0718161CF461E00E948A1280911907C0
:1011200018161CF461E00E948A1280911A071816A2
:1011300074F460E00E945A126AE070E080E090E08F
:101140000E94611361E080911A070E945A128091F7
:101150001607082E000C990BFC01E050F94FE491A2
:10116000F0E0EE0FFF1FE156F94F259134913093D7
:101170001E0720931D07FC01EC5EF84FE491E093FD
:10118000240780911707082E000C990BFC01E050F2
:10119000F94FE491F0E0EE0FFF1FE156F94F259172
:1011A000349130931C0720931B07FC01EC5EF84F31
:1011B000E491E093230780911907082E000C990B06
:1011C000FC01E050F94FE491F0E0EE0FFF1FE15613
:1011D000F94F259134913093200720931F07FC018C
:1011E000EC5EF84FE491E093250780911807082EF4
:1011F000000C990BFC01E050F94FE491F0E0EE0F88
:10120000FF1FE156F94F2591349130932207209327
:101210002107FC01EC5EF84FE491E093260781E2A0
:101220000E948C1884E10E948C188091140787FF1B
:1012300003C08FE7809314078091140780680E9491
:101240008C1880E20E948C188CE00E948C180E94FE
:10125000AB18C1E0C093E40684E08093080782E8FD
:1012600090E09093F0068093EF0640E060E080EE1F
:1012700096E00E94E51361E070E083E00E94C612F0
:101280008091B100887F81608093B100F8941092C2
:10129000800010928100109285001092840088E1F5
:1012A00091E090938900809388008091810088600C
:1012B0008093810080918100816080938100809182
:1012C0006F00826080936F0078940E94BD0C8091C3
:1012D000D106813019F41092E5061CC08091D40625
:1012E0008823C9F380E00E94211886E890E090935B
:1012F000EE068093ED061092F3061092F206C0936C
:10130000E10689E08093F6061092F9061092FB063A
:101310001092FD0680912B07882309F4F3C081E029
:10132000809311071092100710920F071092D306A6
:101330008093290780932A07C0E2D1E08CE0F82E41
:1013400007EA14E0EE24E39499E0D92E0E94FA0C07
:101350008823E1F3FE018491882319F0C0900E07E1
:1013600001C0C12C20EB30E040E060E089E097E074
:101370000E9474144CE04C0D21E231E060E089E001
:1013800097E00E94741410921207F092130760E223
:1013900071E089E097E00E94F91180910D07982F84
:1013A000990F890F81958D5A8093120780910E07AE
:1013B000982F990F890F8195835D809313078091F2
:1013C0002C0784FF03C06CEA70E002C068EA70E09A
:1013D00089E097E00E941D1280910D07982F990FC8
:1013E000890F81958D5A80931207809113078F5F23
:1013F000809313078091E506882319F064EA70E072
:1014000002C060EA70E089E097E00E941D128091BE
:101410000D07982F990F890F81958D5A8093120788
:10142000809113078F5F809313076CE970E089E068
:1014300097E00E941D128091D106813039F580918C
:10144000E5068F5F6091E60687FD09C0082E000C57
:10145000990B70E06F5F7F4F0E94E01D682F6093D3
:10146000E50680E00E9421181093EE060093ED0639
:101470001092F3061092F206E092E106D092F60680
:101480001092F9061092FB061092FD068091D0068C
:101490008130B9F080912B07482F50E060E070E078
:1014A00080902C0790902D07A0902E07B0902F07CA
:1014B00084169506A606B70608F4A2C08F3F09F465
:1014C0009FC08FEF80932B0780E00E94211880E05F
:1014D0000E94211884E990E09093EE068093ED0637
:1014E0001092F3061092F20681E08093E10699E0F3
:1014F0009093F6061092F9061092FB061092FD06E4
:101500008093D306C090D506D090D606C094D094D0
:10151000E12CF12C0E943C134B015C010E943C1316
:10152000A501940120953095409550956095709552
:10153000809590950E94C41D9B01AC01C701B60126
:101540000E94C41D4B015C018091BC069091BD06B8
:101550006C01E12CF12C0E943C13C60ED71EE81E34
:10156000F91EC701B601680D791D8A1D9B1D611505
:1015700071058105910511F00E94181CE8EAF1E05F
:10158000A2E9B1E01082EF012D971882219618820E
:1015900058961C921E92579712961C921E92119763
:1015A00014961C921E92139716961C921E921597D3
:1015B00018961C921E9217972896188221961882C8
:1015C00021961882219618827996599684E0A23B3A
:1015D000B807C1F610928F0110928E0110928D0102
:1015E00010928C01DF91CF911F910F91FF90EF909E
:1015F000DF90CF90BF90AF909F908F900C94340667
:101600008091D206813009F0A1CE0E94EB189ECEC7
:10161000DF92EF92FF920F931F93CF93DF93EC0132
:1016200029898D859E85820F911D9E878D871882C1
:101630001A868091CE0681508E3F70F48A8981117E
:101640000BC02889243041F583E088838B859C85F5
:10165000820F911D9C878B878091CC0681508E3F95
:1016600080F48A8981110DC028892430B9F483E07F
:10167000888381E08A878B859C85821B91099C8762
:101680008B878091D106813059F08091D1068150AD
:101690008E3F08F0CDC009C081E0D7CF81E0E8CF10
:1016A00081E491E00E949117F0CF8B89811104C0F1
:1016B00085E08B8B8AE08A8B8091D006813009F49B
:1016C000B9C08091D00681508E3F08F4B8C082E046
:1016D000888B8091D206813009F050C089E191E079
:1016E0000E9491171092830112E104E18EE1F82E1D
:1016F0009CE0E92E23E2D22E0E94FA0C8823E1F32B
:101700000E94DC058091830110931307882309F45C
:10171000A3C0E09212076BE873E089E097E00E94B3
:101720001D1267E773E089E097E00E941D12D092D6
:1017300013076AE673E089E097E00E941D126EE5E8
:1017400073E089E097E00E941D128091D0068150DD
:101750008E3F08F079C08091D10681508E3F08F00D
:1017600073C081E08093830180E090E00E940C06CA
:1017700010928501109284010E9481068A89882333
:1017800029F081508A8B82E0888301C01A8A8B8974
:10179000882311F081508B8B8B859C8597FF02C02D
:1017A0001C861B868B859C85893B910524F088EBE4
:1017B00090E09C878B878D859E85893D910524F1DE
:1017C000E2E9F1E080E090E0DC01AE56BE4F1F960A
:1017D0002C911F97213061F456961C92108E178A17
:1017E0001282118214821382168215821086178249
:1017F00049967996803223E0920731F783E190E0B1
:101800009E878D870E94740429898091840190911C
:101810008501820F911D9093850180938401DF9152
:10182000CF911F910F91FF90EF90DF900C94DC050A
:101830001A8A42CF8DE291E00E94911742CF8A89A5
:10184000811145CF84E044CF8091D206813009F0E8
:1018500053CF1092830150CF0093120762E573E0DB
:1018600089E097E00E941D12F092130762E473E092
:1018700089E097E00E941D126EE273E089E097E034
:101880000E941D126FE173E089E097E00E941D1233
:101890008091D006813029F40E94C9030E94470735
:1018A0006DCF8091D106813051F08091D206813088
:1018B00009F022CF85E091E00E9491175FCF8093DD
:1018C0008301F3CF9F92AF92BF92CF92DF92EF92BC
:1018D000FF920F931F93CF93DF93F82EE62EB22E35
:1018E00003E0020FD0E0C3E08AEFC82E1EEF842F82
:1018F0008170982EAA24A394A20E4270D42EDF5F8A
:10190000802F8B19180F992081F04C2F440F4A0D0E
:101910006E2D6C1B8D2F8F0D0E940C1A402F6E2D7B
:101920006D1B8C2F8F0D0E940C1ADD2081F04C2F27
:10193000440F4A0D6E2D6C1B8F2D8D1B0E940C1AAF
:10194000402F6E2D6D1B8F2D8C1B0E940C1ADC17E7
:1019500044F417FD04C0C150C394C3941C0D0E5F22
:10196000CECFDF91CF911F910F91FF90EF90DF903D
:10197000CF90BF90AF909F9008958091D70690919F
:10198000D806892BB1F18091DF068F7169F584E16A
:101990000E942513BC01990F880B990B0E94CB1C48
:1019A00026EE3FE34EEC50E40E942F1D0E949A1C4D
:1019B0009B017093D6066093D506672B91F084E067
:1019C0008093D406E7EDF6E080E041915191241731
:1019D000350718F48093D40608958F5F8430A9F7F3
:1019E00003C08FEF8093D4068091DF068F5F8093D2
:1019F000DF0608954F925F926F927F928F929F922F
:101A0000AF92BF92CF92DF92EF92FF920F931F930C
:101A1000CF93DF9300D000D01F92CDB7DEB74091B7
:101A20003B0750913C0760913D0770913E072FB7EF
:101A3000F8948091880190918901A0918A01B091D8
:101A40008B012FBF481B590B6A0B7B0B80913A0708
:101A500090E0A0E0B0E000913607109137072091A8
:101A600038073091390784179507A607B70730F470
:101A7000011511052105310509F047C3012B022B82
:101A8000032B09F040C38091D20681508E3FC0F5F0
:101A90008091D1068130C9F58091E5068F5F609114
:101AA000E60687FD09C0082E000C990B70E06F5FF9
:101AB0007F4F0E94E01D682F6093E5068EE896E058
:101AC0009093400780933F0788E48093410780E02C
:101AD0000E94211887EA94E09093EE068093ED0629
:101AE0001092F3061092F20681E08093E10689E0FD
:101AF0008093F6061092F9061092FB061092FD06EE
:101B00008091D20681508E3F70F48091D006813052
:101B100009F0A7C381E896E09093400780933F07C0
:101B200088E48093410780E00E9424198091E106B7
:101B3000882309F4ADC08091F5068111A9C0809178
:101B4000ED069091EE06E091F206F091F306EE0FAD
:101B5000FF1FE80FF91F2591349121153105F1F48C
:101B60002091F106222331F01092F3061092F20632
:101B7000FC0112C01092E1068091E006882341F03A
:101B800080E00E942419E091F206F091F3062DC046
:101B900080E00E940C187CC025913491C901969573
:101BA00087959695879520FF53C0B90116E07695E5
:101BB00067951A95E1F76F71932F9695969596957F
:101BC00090518F70823081F108F5811117C06B3010
:101BD00008F06AE06093F606E091F206F091F306F1
:101BE0003196F093F306E093F206EE0FFF1F80911B
:101BF000ED069091EE06E80FF91FCECF813061F728
:101C000040E080EE96E00E94E513E6CF8330B1F02D
:101C1000843011F78091E406689F602D1124609351
:101C2000FD069093FE06D8CF8091E406689F602D54
:101C300011246093F9069093FA06CECF8091E406C2
:101C4000689F602D11246093FB069093FC06C4CF1F
:101C50008F738093F4068091E406839F802D112476
:101C60008093F5061092050710920407109203075F
:101C700081E08093F7068093BA061092F80680916F
:101C8000F2069091F30601969093F3068093F20684
:101C90008091F706882309F4EEC08091F506811142
:101CA00003C00E940C18E7C081508093F506809114
:101CB0000507811146C020910307309104072F5F6B
:101CC0003F4FC901880F991FE091FF06F09100076F
:101CD000E80FF91F65917491862F8770809306072E
:101CE000AB01E3E056954795EA95E1F7CA01969571
:101CF0008795972F96959695909307078F73909158
:101D0000E406899F802D112480930507417040933C
:101D1000870130930407209303078091010790E027
:101D20002817390770F020910207222339F0821B0F
:101D30009109909304078093030703C080E00E94F9
:101D40000C18809105078150809305078091F80653
:101D500021E0280F2093F8064091F4063091070700
:101D6000340F8091EC06380F3093E2066091FB0649
:101D7000662371F070E0822F022E000C990B0E94F6
:101D8000E01D8091FC06869F300D11243093E20601
:101D90008091E20690E0849664E270E00E94E01D8B
:101DA0008093E2063091F6063093E3066091F906DF
:101DB000662381F0062E000C770B822F022E000C7A
:101DC000990B0E94E01D8091FA06869F300D112428
:101DD0003093E3066091FD066623A1F0822F220F67
:101DE000990B70E00E94E01DCB0162E070E00E9460
:101DF000E01D2091FE069091E306289F900D11248E
:101E00009093E3068091E3064F3341F08A300CF063
:101E100089E087FD80E08093E30602C01092E3062C
:101E2000F894E091E206F0E0E355FB4FE491E09393
:101E300086013091E30620910807320390011124B6
:101E4000409106074203C001439F900D112400906A
:101E5000E50602C0880F991F0A94E2F797FF02C0B7
:101E600081589F4F880F892F881F990B8093B80640
:101E70008093B906789480914107882309F48FC034
:101E80008C3020F49CE0E92EE81A01C0E12CFF24FC
:101E9000F394F09211071092290710922A073091BB
:101EA0000E074DE2D42E1D2D131B1E0D03E0030F54
:101EB0002EE4412F63E089E097E03D830E94B61550
:101EC0003D810CEF030F1D5F202F41E0612F80E566
:101ED0000E94620C202F42E0612F83E00E94620C7E
:101EE000F0922907F0922A0700910E0713E0100FD5
:101EF000D01ADE0C23E04D2D622F89E097E02D8370
:101F00000E94EF062D812F5F2135A9F71D0DFF24BB
:101F1000FA94F10E23E04F2D622F89E097E02D8394
:101F20000E94EF062D812F5F2135A9F7035033E082
:101F3000D30E402F6D2D80E00E940C1A402F6D2D86
:101F400083E50E940C1A41E06D2D83E00E948E19FA
:101F500042E06D2D80E50E948E19145044E0612FFF
:101F600080E50E948E1948E0612F83E00E948E195F
:101F700084E08093120780910E07E81A8E2D815D10
:101F80008093130760913F077091400789E097E0C5
:101F90000E94F911809141078150809341078091FF
:101FA000D7069091D806892B09F485C011E01093CB
:101FB000290710922A0790910D0785E5891B8093C8
:101FC0001207109213076091D406613009F454C0CF
:101FD00030F08091D306653008F066C061C080E0C3
:101FE0000E94211810931107EFEFF4E0E491EF5FE6
:101FF000E0930D07E0E0F5E0E491EF5FE0930E077A
:1020000081E095E090932807809327071092D806E7
:102010001092D70610920F0718EA0E94FA0C882334
:10202000E1F361EF74E089E097E00E94F9114091DB
:10203000D5065091D60660E070E02AE089E097E08E
:102040000E94A9116CED74E089E097E00E94F911FB
:10205000612F62956F7070E089E097E00E94D6175B
:1020600061ED74E089E097E00E94F9118091D0065B
:10207000813009F0FCC01FC080912C0790912D0782
:10208000A0912E07B0912F078F709927AA27BB2701
:102090000897A105B10510F467E009C068E707C01B
:1020A000882349F06B5F03C0882329F06FE289E041
:1020B00097E00E94F2110E94AB1880910F078111E6
:1020C0000EC088EF91E0E8EBF4E0DF019C011D9287
:1020D00021503040E1F710921207109213070E942E
:1020E0003C136093360770933707809338079093BB
:1020F00039072091320730913307621B730B7093BD
:1021000031076093300780E0CCC02FB7F8948091FE
:10211000880190918901A0918A01B0918B012FBF14
:1021200020913A07820F911DA11DB11D80933B079D
:1021300090933C07A0933D07B0933E0780912C07F6
:1021400090912D07A0912E07B0912F070196A11D08
:10215000B11D80932C0790932D07A0932E07B09369
:102160002F071092360710923707109238071092F7
:1021700039070E943C1360933207709333078093B2
:102180003407909335078091BC069091BD062FE0EF
:10219000289F8001299F100D112485E10E9425139D
:1021A000800F911F24E0969587952A95E1F79093EB
:1021B000BD068093BC062091BB06222309F44BC0C8
:1021C0006091BF06262F30E040E050E029833A833B
:1021D0004B835C83C090C006D12CE12CF12C409144
:1021E000C3065091C4064A01A12CB12C2091C1060E
:1021F0003091C2062901612C712C8217930728F0B7
:102200009C014817590708F49A01C901A0E0B0E001
:102210009C01AD01241935094609570969817A8164
:102220008B819C816C197D098E099F090E94C41DB8
:10223000A501940124193509460957090E94371C44
:10224000C20ED31EE41EF51EC092BE066C2D70E0B9
:1022500085E00E94C6120E9438180E94BD0C81E0E1
:1022600020C0893209F05FCC0E94EB185CCC115081
:1022700009F0D3CE60E070E085E00E94C61283B71B
:10228000817F846083BF83B7816083BF83B78160B0
:1022900083BF889583B78E7F83BF83B78E7F83BFCD
:1022A000BCCE0F900F900F900F900F90DF91CF91B9
:1022B0001F910F91FF90EF90DF90CF90BF90AF9064
:1022C0009F908F907F906F905F904F900895CF92E6
:1022D000DF92EF92FF920F931F93CF93DF936C01E6
:1022E0007A018B01C0E0D0E0CE15DF0589F0D8017E
:1022F0006D918D01D601ED91FC910190F081E02D61
:10230000C6010995892B11F47E0102C02196ECCFFC
:10231000C701DF91CF911F910F91FF90EF90DF9058
:10232000CF9008950E940E1E6115710579F0FB0192
:1023300001900020E9F73197AF01461B570BDC01F4
:10234000ED91FC910280F381E02D099480E090E012
:1023500008954F925F926F927F92EF92FF920F9348
:102360001F93CF93DF93CDB7DEB7A1970FB6F89445
:10237000DEBF0FBECDBF7C01FA01CB0119A2223016
:1023800008F42AE08E010F5D1F4F422E512C612C64
:10239000712CBF01A30192010E94691CF901CA01BD
:1023A000015011096A3014F4605D01C0695CD80104
:1023B0006C93232B242B252B61F7B801C7010E94B6
:1023C0009411A1960FB6F894DEBF0FBECDBFDF917A
:1023D000CF911F910F91FF90EF907F906F905F9042
:1023E0004F900895DC01ED91FC910190F081E02D7A
:1023F0000994EF92FF920F931F93CF93DF938C0179
:102400007B01C0E0D0E0F701EC0FFD1F6491662373
:1024100061F0D801ED91FC910190F081E02DC801AF
:102420000995892B11F02196EECFCE01DF91CF9146
:102430001F910F91FF90EF9008950F931F93CF93EB
:10244000DF93EC010E94F9118C0165E771E0CE0188
:102450000E949411800F911FDF91CF911F910F91D6
:102460000895833081F028F4813099F08230A1F012
:1024700008958730A9F08830B9F08430D1F4809184
:1024800080008F7D03C0809180008F7780938000D3
:10249000089584B58F7702C084B58F7D84BD08957B
:1024A0008091B0008F7703C08091B0008F7D8093C2
:1024B000B00008951F93CF93DF93282F30E0F901E8
:1024C000E85DF84F8491F901EC5EF84FD491F90181
:1024D000E050F94FC491CC23C9F0162F81110E940E
:1024E0003112EC2FF0E0EE0FFF1FE156F94FA591EE
:1024F000B4918FB7F894111105C09C91ED2FE09520
:10250000E92302C0EC91ED2BEC938FBFDF91CF91CB
:102510001F910895CF93DF9390E0FC01EC5EF84F9C
:102520002491FC01E050F94F8491882361F190E0FF
:10253000880F991FFC01EB56F94FC591D491FC010E
:10254000E156F94FA591B491611109C09FB7F89474
:102550008881209582238883EC912E230BC06230E2
:1025600061F49FB7F8943881822F80958323888304
:10257000EC912E2B2C939FBF06C08FB7F894E88167
:102580002E2B28838FBFDF91CF9108951F93CF9378
:10259000DF93182FEB0161E00E948A12209711F45B
:1025A00060E004C0CF3FD10539F461E0812FDF91B5
:1025B000CF911F910C945A12E12FF0E0E85DF84F93
:1025C000E491E330F9F048F4E130B9F0E230A1F5FC
:1025D00084B5806284BDC8BD34C0E730E9F0E8301E
:1025E00019F1E43049F58091800080628093800089
:1025F000D0938B00C0938A0024C084B5806884BDCA
:10260000C7BD1FC080918000806880938000D093F8
:102610008900C093880015C08091B00080688093C5
:10262000B000C093B3000DC08091B0008062809371
:10263000B000C093B40005C0C038D1050CF0B5CFD0
:10264000AFCFDF91CF911F9108958E3008F08E505B
:102650008770806480937C0080917A00806480938E
:102660007A0080917A0086FDFCCF809178002091DD
:10267000790090E0922B08953FB7F8948091B404CC
:102680009091B504A091B604B091B70426B5A89B6B
:1026900005C02F3F19F00196A11DB11D3FBFBA2FF4
:1026A000A92F982F8827820F911DA11DB11DBC0154
:1026B000CD0142E0660F771F881F991F4A95D1F719
:1026C00008958F929F92AF92BF92CF92DF92EF9236
:1026D000FF926B017C010E943C134B015C01C11411
:1026E000D104E104F104F1F00E943C13DC01CB01C0
:1026F00088199909AA09BB09883E9340A105B1052B
:1027000070F321E0C21AD108E108F10888EE880EC2
:1027100083E0981EA11CB11CC114D104E104F10492
:1027200019F7DDCFFF90EF90DF90CF90BF90AF9083
:102730009F908F9008951F920F920FB60F921124C1
:102740002F933F938F939F93AF93BF938091880173
:1027500090918901A0918A01B0918B013091B304CD
:1027600023E0230F2D3720F40196A11DB11D05C0D4
:1027700026E8230F0296A11DB11D2093B304809378
:10278000880190938901A0938A01B0938B01809175
:10279000B4049091B504A091B604B091B704019629
:1027A000A11DB11D8093B4049093B504A093B60409
:1027B000B093B704BF91AF919F918F913F912F91AB
:1027C0000F900FBE0F901F90189550E0DA01AA0FDE
:1027D000BB1FA80FB91F1F963C911F9750962C91B5
:1027E0005097E32FF22FE60FF11DE60FF11D6591D3
:1027F000749190967C936E935F97FB012591349131
:10280000FC013481329F202D1124DC01A40FB51F5F
:1028100091962C939197FB0185919491E92FF0E08B
:10282000822F90E0E817F90720F4FB01859194913D
:10283000292F239F202D112492962C930895809167
:10284000BA06882319F08091B90601C080E0809310
:10285000B40008951F920F920FB60F9211242F9378
:102860003F934F935F936F937F938F939F93AF9318
:10287000BF93EF93FF936091B806662321F1809197
:10288000B2048F5F8093B204909186018917D8F0CB
:102890009091BA0681E089278093BA061092B2041B
:1028A00080918701882369F08091000193E4899FDA
:1028B000802D1124895B809300010E94D41D909388
:1028C000B9060E941F14FF91EF91BF91AF919F91A4
:1028D0008F917F916F915F914F913F912F910F90C9
:1028E0000FBE0F901F9018954F925F926F927F923C
:1028F0008F929F92AF92BF92CF92DF92EF92FF9210
:102900000F931F93CF93DF93F901C49031965491A5
:10291000EC0108A164350CF018C10C2C000CDD088A
:10292000A62F062E000CBB0B7D01EC0CFD1C1E140B
:102930001F040CF00AC140330CF007C1A52E842EF1
:10294000042E000C9908F401E50FF11D57FDFA95CE
:102950001E161F060CF0F9C02E5F3F4FE6012796AA
:10296000D7FD279673E0D595C7957A95E1F747FF90
:102970000AC0A52EA40EC89DA001C99D500D11240A
:10298000241B350B40E0EA2D0A2C000CFF0BE40F52
:10299000F11D47FDFA95F1971CF050E3A52EA41AFE
:1029A00067FD60E0F701E535F10514F0E4E5F0E0DE
:1029B0007E2FFC01D484D426862F062E000C990B82
:1029C000FC01EA1BFB0BDF017F01F7E0EF22FF2494
:1029D000E0E8F0E002C0F595E795EA94E2F71E2FF3
:1029E000B7FD179653E0B595A7955A95E1F72A0FCD
:1029F0003B1FE42FE77051E001C0550FEA95EAF75D
:102A0000459545954595B4E54B02800D911D1124E2
:102A100088549B4FC12C0A2C000CBB08992493941A
:102A20002E015524EC2DF0E0EA15FB050CF08DC0CD
:102A3000F90144910130E1F47C01A12F862E881A1E
:102A4000B82DBE0DB71708F077C0B42FBA2321F008
:102A5000E701B881B52BB883B0E0B595A79510977D
:102A600019F431964491A0E8DFEFED1AFD0AE8CFA2
:102A700001111FC0752E70947C01A12FF901862EC3
:102A8000881AB82DBE0DB71708F056C0B42FBA2358
:102A900021F0E701B881B721B883B0E0B595A795DB
:102AA000109719F431964491A0E8DFEFED1AFD0A72
:102AB000E8CF033031F07C01A12FF901862E881A6E
:102AC00037C0752E7094862E7C01A12FF9018716D0
:102AD000D8F4B42FBA2359F0E701B881682C6D24DB
:102AE00060FE02C0B52B02C0B721E701B883B0E099
:102AF000B595A795109719F431964491A0E8839461
:102B0000DFEFED1AFD0AE3CFD92416C0B42FBA23A4
:102B100021F0E701B881B527B883B0E0B595A79556
:102B2000109719F431964491A0E8DFEFED1AFD0AF1
:102B3000B82DBE0DB71750F3550F19F48C5A9F4F8F
:102B400051E0C394240D351D6DCFDF91CF911F91BE
:102B50000F91FF90EF90DF90CF90BF90AF909F903C
:102B60008F907F906F905F904F900895BF92CF921B
:102B7000DF92EF92FF920F931F93CF93DF931F92F9
:102B8000CDB7DEB77C01D62EC42E002E000C110B63
:102B9000040F111D47FD1A954C2D0C2C000C550BE4
:102BA000401751077CF4B12CB21654F46B2D6D0D07
:102BB0004C2DC70129830E94EF06B3942981F4CFDD
:102BC000C394EACF0F90DF91CF911F910F91FF90A7
:102BD000EF90DF90CF90BF9008956F927F928F9289
:102BE0009F92AF92BF92CF92DF92EF92FF920F939C
:102BF0001F93CF93DF93EC016A3019F42D819885F0
:102C0000A1C06D3009F4A4C01885BA84D98488A005
:102C100083E58D150CF47FC08FE28B150CF47BC01F
:102C20008C8190E00197189F9001199F300D11241D
:102C3000C9018D0D911DD7FC9A95181619060CF037
:102C40006AC08D81819FC00111248B0D911DB7FC3D
:102C50009A95181619060CF05EC09D2CCD2CE62E08
:102C6000F12CEC2DED190E2E000CFF0B8C8190E059
:102C7000E817F9070CF04EC00197E817F90779F04B
:102C8000E89E9001E99E300DF89E300D1124E20F70
:102C9000F31F8E8D9F8DE80FF91F749001C0712C6A
:102CA0006B2CAB2C2A2D2B19022E000C330B8D8193
:102CB00090E0281739075CF570FE10C0113031F430
:102CC0004A2D6C2DCE010E94EF061DC0012F212F31
:102CD000462D692DCE010E94B61515C089A198A177
:102CE000891789F088A3113031F44A2D6C2DCE015B
:102CF0000E94EF0607C0012F212F462D692DCE011E
:102D00000E94B61588A27694A394610ECBCFC3948B
:102D1000910EA7CF88A228853C818985329F800D9E
:102D2000112489879F81992399F0082E000C990B13
:102D300044E550E0239F40195109112448175907D1
:102D40003CF49D818A85299F800D11248A871986EC
:102D500081E090E0DF91CF911F910F91FF90EF9074
:102D6000DF90CF90BF90AF909F908F907F906F90AB
:102D700008954F925F926F927F928F929F92AF923F
:102D8000BF92CF92DF92EF92FF920F931F93CF9358
:102D9000DF93FA01A490B12C3196A491F701B4917C
:102DA0003196E4913C016A0C7B1C26153705A4F48E
:102DB0006901CB0ED11C8C159D0574F4B0E04B015C
:102DC0008A0E9B1E081519053CF4E801CE0FD11D93
:102DD000FE016C177D0714F080E092C08217930704
:102DE0000CF08BC02901481A590A6017710724F4A6
:102DF000E801C61BD70B02C0C0E0D0E06C147D0414
:102E00001CF05601A81AB90A8E169F061CF0DF01A5
:102E1000A61BB70B1C2FC0E8D0E0782E721A862EA6
:102E2000801A612F70E06A177B07B4F6042DC82C56
:102E3000C10ED12C802F90E08A159B050CF059C053
:102E4000FA012491FC0133E0F595E7953A95E1F715
:102E5000329630E0295F3F4F83E0359527958A957C
:102E6000E1F7629FC001639F900D729F900D112446
:102E7000E80FF91FE40FF51FE491F0E0802F877051
:102E80009E0102C0359527958A95E2F7E223F32348
:102E9000EF2B69F1F7012491972C900EE92DF0E0CA
:102EA00083E0F595E7958A95E1F7329630E0295F62
:102EB0003F4F93E0359527959A95E1F7C29EC00163
:102EC000C39E900DD29E900D1124E80FF91FEE0DB8
:102ED000FF1DE491F0E0892D87709E0102C03595B9
:102EE00027958A95E2F7E223F323EF2B21F40F5F76
:102EF000A1CF1F5F96CF81E003C0412C512C75CF2D
:102F0000DF91CF911F910F91FF90EF90DF90CF90C5
:102F1000BF90AF909F908F907F906F905F904F90F9
:102F20000895CF93DF93EC0188818B3008F08AE01D
:102F30008093F60640E06A8180EE96E00E94E513F9
:102F40002E818091E4069C81989F902D112490936E
:102F5000F9062093FA062A859885989F902D1124CA
:102F60009093FB062093FC062E859C85989F902DC0
:102F700011249093FD062093FE069A8928892093B8
:102F8000F406989F802D11248093F5061092050772
:102F9000109204071092030781E08093F706809354
:102FA000BA061092F806DF91CF910895CF92DF9282
:102FB000EF92FF920F931F93CF93DF936B01770FE5
:102FC000EE08FF08F7FE1BC0EC016DE20E94F21153
:102FD0008C0144275527BA014C195D096E097F09F8
:102FE0002AE0CE010E94A911800F911FDF91CF919D
:102FF0001F910F91FF90EF90DF90CF9008952AE0FE
:10300000B701A601DF91CF911F910F91FF90EF9033
:10301000DF90CF900C94A911811112C01092F70685
:103020001092F50610920407109203071092F8060A
:103030001092B9061092B8061092BA060C941F149A
:103040000895811114C01092F7061092F50610929F
:103050000407109203071092F8061092B906109216
:10306000B8061092BA060E941F141092E106089545
:10307000CF92DF92EF92FF920F931F93CF93DF9344
:10308000C5ECD6E00CEC16E0FF24FA9497E0E92EAC
:10309000E00E62E088810E948A12288130E0F90106
:1030A000E85DF84F8491F901EC5EF84FC490F901A6
:1030B000E050F94FD490DD2071F081110E9431125F
:1030C000ED2DF0E0EE0FFF1FEA50F94FA591B491FE
:1030D000EC91EC21B1F4F80180818F5F808360E096
:1030E00088810E948A1221960F5F1F4FE012D1CF74
:1030F000DF91CF911F910F91FF90EF90DF90CF90D4
:103100000895F8018081882371F3F8018F3F11F44D
:103110001082E5CFF082E3CFCF93C82FF89460E020
:10312000809118070E945A128091190718161CF4F2
:1031300060E00E945A12CEBD00000DB407FEFDCF24
:103140008EB58091190718161CF461E00E945A127E
:103150007894CF9108950F931F93CF938091150783
:103160008F5F8093150708EB14E0C0E08C2F80641C
:103170000E948C1880E80E948C1861E080911807EA
:103180000E945A128091190718161CF460E00E94E0
:103190005A1280E090E0F801E80FF91F20812EBD5F
:1031A00000000DB407FEFDCF2EB5019684359105C4
:1031B00091F78091190718161CF461E00E945A12C9
:1031C000CF5F0C5A1F4FC63089F680E4CF911F9114
:1031D0000F910C948C1888EF91E0E8EBF4E0DF019C
:1031E0009C011D9221503040E1F71092120710927D
:1031F00013076EEC76E089E097E00E94F9110E94D7
:10320000AB188CB583608CBD8DB58E7F8DBD88E786
:1032100091E0EEEFFFE3099510920F0769EA76E07F
:1032200089E097E00E941D120E94AB180E94381896
:103230008091D006813039F062E370E080E090E068
:103240000E946113F3CF0895AF92BF92CF92DF92A5
:10325000EF92FF920F931F93CF93DF93C82ED12C41
:10326000E601C554D94F9DA1992309F44CC07E01B4
:103270009FEFE91AF90AF70195A1911144C09EA5A3
:103280008601000F111F0554194FF80134A525A51B
:10329000E32FF22FE90FF11DE90FF11D2591349174
:1032A0002F3FFFEF3F0711F41DA22DC039ABF601F0
:1032B000EE0FFF1FEB53F94F3327220F331F05A0EB
:1032C000F6A1E02DE20FF31FA590B490811117C075
:1032D0000E942118F801B3AAA2AAF601EE0FFF1F5F
:1032E000E353F94F16A215A281E0F70185A389E007
:1032F0008BAF1EAEFE017B9615A2329615A22996C3
:103300008DA18F5F8DA3DF91CF911F910F91FF90C2
:10331000EF90DF90CF90BF90AF900895AF92BF92A3
:10332000CF92DF92EF92FF920F931F93CF93DF9391
:10333000182F062FC1E0D3E08AEFD82E9EEFE92E9A
:10334000842F8470C82E842F8270B82E842F8870AA
:10335000A82E4170F42E8C2F880F8F5FE80ECC20A2
:1033600081F04D2F400F6C2F610F89E097E00E9494
:10337000EF064C2F400F6D2F610F89E097E00E9400
:10338000EF06BB2081F0402F4D1B6C2F610F89E0B1
:1033900097E00E94EF06402F4C1B6D2F610F89E0D4
:1033A00097E00E94EF06AA2081F04C2F400F612F7A
:1033B0006D1B89E097E00E94EF064D2F400F612FB3
:1033C0006C1B89E097E00E94EF06FF2081F0402F00
:1033D0004C1B612F6D1B89E097E00E94EF06402F88
:1033E0004D1B612F6C1B89E097E00E94EF06CD1703
:1033F00044F4E7FC04C0D150D394D394ED0CCF5FD8
:10340000AACFDF91CF911F910F91FF90EF90DF90A6
:10341000CF90BF90AF9008950F931F93CF93DF93FA
:10342000182F062FD42FC0E0CD174CF44C2F400F8F
:10343000612F89E097E00E94EF06CF5FF5CFDF9123
:10344000CF911F910F91089510920C0710920B07C6
:103450008DE691E090930A07809309070895CF9332
:10346000DF93CDB7DEB72D970FB6F894DEBF0FBE52
:10347000CDBF789484B5826084BD84B5816084BDFD
:1034800085B5826085BD85B5816085BD80916E0002
:10349000816080936E001092810080918100826033
:1034A0008093810080918100816080938100809170
:1034B00080008160809380008091B100846080935F
:1034C000B1008091B00081608093B00080917A005B
:1034D000846080937A0080917A00826080937A0081
:1034E00080917A00816080937A0080917A00806870
:1034F00080937A001092C1000E9447070E94FA0C44
:10350000811107C080E090E0892BC1F30E94000088
:10351000F5CF42E9E42E41E0F42E8701D80156961A
:103520008C915697882341F05796ED91FC915897CE
:10353000309711F0C8010995075E1F4FB4E0023BB8
:103540001B0761F7E0919001F09191018689882332
:10355000B1F1838594858A9797FD05C090938F017B
:1035600080938E0104C010928F0110928E01809181
:103570008E0190918F018D36910534F08CE690E0AC
:1035800090938F0180938E01858596850E9797FD88
:1035900005C090938D0180938C0104C010928D0121
:1035A00010928C0180918C0190918D01813D91054B
:1035B00034F0E0EDF0E0F0938D01E0938C0138EA17
:1035C000C32E31E0D32E812C912CD6018C918823EF
:1035D00009F4CCC0F7012081F9E1F89DC001F99D03
:1035E000900D1124820F911D820F911DFC01EE564A
:1035F000FE4FA180B280A114B10409F4B7C0F60156
:103600003C97808131971081D7011D964C901D9772
:1036100090918C01491A1B963C9090918E01391A19
:1036200011110AC0811108C09501442D632D89E054
:1036300097E00E9474149AC0F50194913196049118
:10364000692E712C9301295F3F4FA90123E0559505
:1036500047952A95E1F75A834983137091509D87C6
:10366000292E1C867FEF700F202F30E038872F83A4
:103670003C85432F330F550B461557050CF076C08C
:103680004C8547FD495F4595459545959C859778BF
:1036900097FF03C09150986F9F5F20E830E002C011
:1036A000359527959A95E2F73C832B83372F512C3C
:1036B000042E000C550BDA011296BE83AD83452D06
:1036C000052C000C550BAF81B8854A175B070CF031
:1036D00048C0A981BA814A9FF0014B9FF00D5A9FC3
:1036E000F00D11244D815E81E40FF51FEA0DFB1DE5
:1036F000E491F0E0AB81BC81EA23FB23EF2B71F175
:10370000123039F0133041F0113049F4422D652D5B
:1037100008C0622D432F05C0632F4C8502C0452D84
:103720006C85882369F0582F537080FF03C02D8566
:10373000261B622F81FF05C0802F841B482F01C0EC
:1037400050E0630D440D89E097E03A8759877B8705
:103750000E94EF065985852F7B853A855394315019
:10376000AECF2C852F5F2C872A9482CF4FEF841AFF
:10377000940A59E1C50ED11C89E1E80EF11C90E2D2
:103780008916910409F021CFBDCE8F929F92AF92FE
:10379000BF92CF92DF92EF92FF92CF93DF93EC0133
:1037A000688179818A819B81611571058105910507
:1037B00021F464E279ED8BE597E02DE133EF41E010
:1037C00050E00E94371C49015A019B01AC01A7EA55
:1037D000B1E40E94561C6B017C01ACEEB4EFA50174
:1037E00094010E94641CDC01CB018C0D9D1DAE1D5B
:1037F000BF1DB7FF03C00197A109B0488883998313
:10380000AA83BB83BC01CD019F77DF91CF91FF904D
:10381000EF90DF90CF90BF90AF909F908F900895E2
:103820000E94C51B089581E091E00E94C51B089588
:10383000609301017093020180930301909304014E
:103840000895F999FECF92BD81BDF89A992780B568
:103850000895262FF999FECF1FBA92BD81BD20BDD4
:103860000FB6F894FA9AF99A0FBE01960895052EAC
:1038700097FB1EF400940E944E1C57FD07D00E9437
:10388000691C07FC03D04EF40C944E1C50954095D7
:10389000309521953F4F4F4F5F4F089590958095FC
:1038A000709561957F4F8F4F9F4F08950E948B1C9D
:1038B000A59F900DB49F900DA49F800D911D112484
:1038C0000895B7FF0C94561C0E94561C821B930B44
:1038D0000895A1E21A2EAA1BBB1BFD010DC0AA1F51
:1038E000BB1FEE1FFF1FA217B307E407F50720F069
:1038F000A21BB30BE40BF50B661F771F881F991FE4
:103900001A9469F760957095809590959B01AC012C
:10391000BD01CF010895A29FB001B39FC001A39F35
:10392000700D811D1124911DB29F700D811D1124F8
:10393000911D08950E940E1D88F09F5798F0B92F91
:103940009927B751B0F0E1F0660F771F881F991FD4
:103950001AF0BA95C9F714C0B13091F00E94281D31
:10396000B1E008950C94281D672F782F8827B85F41
:1039700039F0B93FCCF3869577956795B395D9F72C
:103980003EF490958095709561957F4F8F4F9F4F36
:103990000895E89409C097FB3EF490958095709542
:1039A00061957F4F8F4F9F4F9923A9F0F92F96E98B
:1039B000BB279395F695879577956795B795F11100
:1039C000F8CFFAF4BB0F11F460FF1BC06F5F7F4F9D
:1039D0008F4F9F4F16C0882311F096E911C07723AF
:1039E00021F09EE8872F762F05C0662371F096E8B8
:1039F000862F70E060E02AF09A95660F771F881F87
:103A0000DAF7880F9695879597F9089557FD90589E
:103A1000440F551F59F05F3F71F04795880F97FB92
:103A2000991F61F09F3F79F087950895121613064C
:103A30001406551FF2CF4695F1DF08C0161617067B
:103A40001806991FF1CF86957105610508940895B0
:103A5000E894BB2766277727CB0197F908950E9442
:103A6000421D0C94B31D0E94A51D38F00E94AC1D90
:103A700020F0952311F00C949C1D0C94A21D112490
:103A80000C94291D0E94061D70F3959FC1F3950F9C
:103A900050E0551F629FF001729FBB27F00DB11DD2
:103AA000639FAA27F00DB11DAA1F649F6627B00D62
:103AB000A11D661F829F2227B00DA11D621F739F4B
:103AC000B00DA11D621F839FA00D611D221F749F59
:103AD0003327A00D611D231F849F600D211D822FA0
:103AE000762F6A2F11249F5750409AF0F1F08823C7
:103AF0004AF0EE0FFF1FBB1F661F771F881F9150F4
:103B00005040A9F79E3F510580F00C949C1D0C94E9
:103B1000291D5F3FE4F3983ED4F38695779567952A
:103B2000B795F795E7959F5FC1F7FE2B880F911D1D
:103B30009695879597F9089597F99F6780E870E0C3
:103B400060E008959FEF80EC089500240A94161613
:103B5000170618060906089500240A94121613067B
:103B6000140605060895092E0394000C11F4882309
:103B700052F0BB0F40F4BF2B11F460FF04C06F5F25
:103B80007F4F8F4F9F4F0895DB018F939F930E942C
:103B9000561CBF91AF91A29F800D911DA39F900DC8
:103BA000B29F900D11240895991B79E004C0991FCC
:103BB000961708F0961B881F7A95C9F78095089587
:103BC00097FB072E16F4009407D077FD09D00E94CA
:103BD000FA1D07FC05D03EF4909581959F4F0895FE
:103BE000709561957F4F0895EE0FFF1F0590F4913A
:103BF000E02D0994AA1BBB1B51E107C0AA1FBB1FE4
:103C0000A617B70710F0A61BB70B881F991F5A9568
:103C1000A9F780959095BC01CD01089581E090E0D1
:0A3C2000F8940C94131EF894FFCFE3
:103C2A00010100000001000000000000000400FB88
:103C3A00FF000000003C0006000100000000000038
:103C4A00000400050000000000370006000400011F
:103C5A00000100FFFF0100FEFF0000000010000449
:103C6A0000040000000100FFFF0100020000000044
:103C7A000017000400060001000100FFFF00000019
:103C8A0000000000000000060000000000ED1567BB
:103C9A0011F803F7030D0A004C4F41444552000046
:00000001FF
